{
  "contractName": "CurrentForCarbon",
  "abi": [
    {
      "inputs": [],
      "stateMutability": "nonpayable",
      "type": "constructor"
    },
    {
      "anonymous": false,
      "inputs": [
        {
          "indexed": true,
          "internalType": "string",
          "name": "gameEventIDIdx",
          "type": "string"
        },
        {
          "indexed": true,
          "internalType": "string",
          "name": "gameEventNameIdx",
          "type": "string"
        },
        {
          "indexed": false,
          "internalType": "string",
          "name": "gameEventID",
          "type": "string"
        },
        {
          "indexed": false,
          "internalType": "string",
          "name": "gameEventName",
          "type": "string"
        },
        {
          "indexed": false,
          "internalType": "string",
          "name": "gameEventType",
          "type": "string"
        },
        {
          "indexed": false,
          "internalType": "string",
          "name": "gameEventStartTime",
          "type": "string"
        },
        {
          "indexed": false,
          "internalType": "string",
          "name": "gameEventEndTime",
          "type": "string"
        },
        {
          "indexed": false,
          "internalType": "string",
          "name": "gameEventDuration",
          "type": "string"
        },
        {
          "indexed": false,
          "internalType": "string",
          "name": "dollarPerPoint",
          "type": "string"
        },
        {
          "indexed": false,
          "internalType": "string",
          "name": "pointsPerWatt",
          "type": "string"
        },
        {
          "indexed": false,
          "internalType": "string",
          "name": "pointsPerPercent",
          "type": "string"
        }
      ],
      "name": "GameEventEvent",
      "type": "event"
    },
    {
      "anonymous": false,
      "inputs": [
        {
          "indexed": true,
          "internalType": "string",
          "name": "gamePlayerIDIdx",
          "type": "string"
        },
        {
          "indexed": false,
          "internalType": "string",
          "name": "gamePlayerID",
          "type": "string"
        },
        {
          "indexed": false,
          "internalType": "string",
          "name": "dataConnectionString",
          "type": "string"
        },
        {
          "indexed": false,
          "internalType": "address",
          "name": "gamePlayerAddress",
          "type": "address"
        },
        {
          "indexed": false,
          "internalType": "bool",
          "name": "active",
          "type": "bool"
        }
      ],
      "name": "GamePlayerEvent",
      "type": "event"
    },
    {
      "anonymous": false,
      "inputs": [
        {
          "indexed": true,
          "internalType": "string",
          "name": "gamePlayerIDIdx",
          "type": "string"
        },
        {
          "indexed": true,
          "internalType": "string",
          "name": "gameEventIDIdx",
          "type": "string"
        },
        {
          "indexed": false,
          "internalType": "string",
          "name": "gamePlayerID",
          "type": "string"
        },
        {
          "indexed": false,
          "internalType": "string",
          "name": "gameEventID",
          "type": "string"
        },
        {
          "indexed": false,
          "internalType": "string",
          "name": "averagePowerInWatts",
          "type": "string"
        },
        {
          "indexed": false,
          "internalType": "string",
          "name": "baselineAveragePowerInWatts",
          "type": "string"
        },
        {
          "indexed": false,
          "internalType": "string",
          "name": "deltaAveragePowerInWatts",
          "type": "string"
        },
        {
          "indexed": false,
          "internalType": "string",
          "name": "percentPoints",
          "type": "string"
        },
        {
          "indexed": false,
          "internalType": "string",
          "name": "wattPoints",
          "type": "string"
        },
        {
          "indexed": false,
          "internalType": "string",
          "name": "totalPointsAwarded",
          "type": "string"
        },
        {
          "indexed": false,
          "internalType": "string",
          "name": "awardValue",
          "type": "string"
        },
        {
          "indexed": false,
          "internalType": "bool",
          "name": "confirmed",
          "type": "bool"
        }
      ],
      "name": "GameResultEvent",
      "type": "event"
    },
    {
      "anonymous": false,
      "inputs": [
        {
          "indexed": true,
          "internalType": "address",
          "name": "previousOwner",
          "type": "address"
        },
        {
          "indexed": true,
          "internalType": "address",
          "name": "newOwner",
          "type": "address"
        }
      ],
      "name": "OwnershipTransferred",
      "type": "event"
    },
    {
      "inputs": [],
      "name": "HasResultReadyFlag",
      "outputs": [
        {
          "internalType": "bool",
          "name": "",
          "type": "bool"
        }
      ],
      "stateMutability": "view",
      "type": "function",
      "constant": true
    },
    {
      "inputs": [],
      "name": "_contractName",
      "outputs": [
        {
          "internalType": "string",
          "name": "",
          "type": "string"
        }
      ],
      "stateMutability": "view",
      "type": "function",
      "constant": true
    },
    {
      "inputs": [],
      "name": "owner",
      "outputs": [
        {
          "internalType": "address",
          "name": "",
          "type": "address"
        }
      ],
      "stateMutability": "view",
      "type": "function",
      "constant": true
    },
    {
      "inputs": [
        {
          "internalType": "address",
          "name": "newOwner",
          "type": "address"
        }
      ],
      "name": "transferOwnership",
      "outputs": [],
      "stateMutability": "nonpayable",
      "type": "function"
    },
    {
      "inputs": [
        {
          "internalType": "bytes32",
          "name": "_gamePlayerIDHash",
          "type": "bytes32"
        }
      ],
      "name": "GamePlayerExists",
      "outputs": [
        {
          "internalType": "bool",
          "name": "",
          "type": "bool"
        }
      ],
      "stateMutability": "view",
      "type": "function",
      "constant": true
    },
    {
      "inputs": [
        {
          "internalType": "bytes32",
          "name": "_gameEventIDHash",
          "type": "bytes32"
        }
      ],
      "name": "GameEventExists",
      "outputs": [
        {
          "internalType": "bool",
          "name": "",
          "type": "bool"
        }
      ],
      "stateMutability": "view",
      "type": "function",
      "constant": true
    },
    {
      "inputs": [
        {
          "internalType": "bytes32",
          "name": "_gameResultIDHash",
          "type": "bytes32"
        }
      ],
      "name": "GameResultExists",
      "outputs": [
        {
          "internalType": "bool",
          "name": "",
          "type": "bool"
        }
      ],
      "stateMutability": "view",
      "type": "function",
      "constant": true
    },
    {
      "inputs": [
        {
          "internalType": "string",
          "name": "gamePlayerID",
          "type": "string"
        },
        {
          "internalType": "address",
          "name": "playerAddress",
          "type": "address"
        },
        {
          "internalType": "string",
          "name": "dataConnectionString",
          "type": "string"
        }
      ],
      "name": "AddGamePlayer",
      "outputs": [],
      "stateMutability": "nonpayable",
      "type": "function"
    },
    {
      "inputs": [
        {
          "internalType": "string",
          "name": "gameEventID",
          "type": "string"
        },
        {
          "internalType": "string",
          "name": "gameEventName",
          "type": "string"
        },
        {
          "internalType": "string",
          "name": "gameEventType",
          "type": "string"
        },
        {
          "internalType": "string",
          "name": "gameEventStartTime",
          "type": "string"
        },
        {
          "internalType": "string",
          "name": "gameEventEndTime",
          "type": "string"
        },
        {
          "internalType": "string",
          "name": "gameEventDuration",
          "type": "string"
        },
        {
          "internalType": "string",
          "name": "dollarPerPoint",
          "type": "string"
        },
        {
          "internalType": "string",
          "name": "pointsPerWatt",
          "type": "string"
        },
        {
          "internalType": "string",
          "name": "pointsPerPercent",
          "type": "string"
        }
      ],
      "name": "AddGameEvent",
      "outputs": [],
      "stateMutability": "nonpayable",
      "type": "function"
    },
    {
      "inputs": [
        {
          "internalType": "string",
          "name": "gamePlayerID",
          "type": "string"
        },
        {
          "internalType": "string",
          "name": "gameEventID",
          "type": "string"
        },
        {
          "internalType": "address",
          "name": "gamePlayerAddress",
          "type": "address"
        },
        {
          "internalType": "string",
          "name": "averagePowerInWatts",
          "type": "string"
        },
        {
          "internalType": "string",
          "name": "baselineAveragePowerInWatts",
          "type": "string"
        },
        {
          "internalType": "string",
          "name": "deltaAveragePowerInWatts",
          "type": "string"
        },
        {
          "internalType": "string",
          "name": "percentPoints",
          "type": "string"
        },
        {
          "internalType": "string",
          "name": "wattPoints",
          "type": "string"
        },
        {
          "internalType": "string",
          "name": "totalPointsAwarded",
          "type": "string"
        },
        {
          "internalType": "string",
          "name": "awardValue",
          "type": "string"
        }
      ],
      "name": "AddGameResult",
      "outputs": [],
      "stateMutability": "nonpayable",
      "type": "function"
    },
    {
      "inputs": [],
      "name": "testConnection",
      "outputs": [
        {
          "internalType": "bool",
          "name": "",
          "type": "bool"
        }
      ],
      "stateMutability": "pure",
      "type": "function",
      "constant": true
    },
    {
      "inputs": [],
      "name": "getAddress",
      "outputs": [
        {
          "internalType": "address",
          "name": "",
          "type": "address"
        }
      ],
      "stateMutability": "view",
      "type": "function",
      "constant": true
    },
    {
      "inputs": [],
      "name": "addTestData",
      "outputs": [],
      "stateMutability": "nonpayable",
      "type": "function"
    },
    {
      "inputs": [],
      "name": "kill",
      "outputs": [],
      "stateMutability": "nonpayable",
      "type": "function"
    }
  ],
  "bytecode": "0x60806040526000600860006101000a81548160ff0219169083151502179055503480156200002c57600080fd5b50336000806101000a81548173ffffffffffffffffffffffffffffffffffffffff021916908373ffffffffffffffffffffffffffffffffffffffff1602179055506040518060600160405280602481526020016200206160249139600790805190602001906200009e929190620000a5565b50620001ba565b828054620000b39062000155565b90600052602060002090601f016020900481019282620000d7576000855562000123565b82601f10620000f257805160ff191683800117855562000123565b8280016001018555821562000123579182015b828111156200012257825182559160200191906001019062000105565b5b50905062000132919062000136565b5090565b5b808211156200015157600081600090555060010162000137565b5090565b600060028204905060018216806200016e57607f821691505b602082108114156200018557620001846200018b565b5b50919050565b7f4e487b7100000000000000000000000000000000000000000000000000000000600052602260045260246000fd5b611e9780620001ca6000396000f3fe608060405234801561001057600080fd5b50600436106100ea5760003560e01c80637954fd321161008c578063a212b45411610066578063a212b45414610239578063c7604ab614610243578063e0b5cca91461025f578063f2fde38b1461027d576100ea565b80637954fd32146101bb5780638a5ed70b146101eb5780638da5cb5b1461021b576100ea565b806351df2a12116100c857806351df2a121461013557806358462511146101655780636625f6581461018157806369ab83be1461019d576100ea565b80633412a15c146100ef57806338cc48311461010d57806341c0e1b51461012b575b600080fd5b6100f7610299565b604051610104919061195b565b60405180910390f35b6101156102a2565b6040516101229190611940565b60405180910390f35b6101336102aa565b005b61014f600480360381019061014a9190611363565b61031b565b60405161015c919061195b565b60405180910390f35b61017f600480360381019061017a9190611448565b610358565b005b61019b60048036038101906101969190611623565b610753565b005b6101a5610a84565b6040516101b29190611976565b60405180910390f35b6101d560048036038101906101d09190611363565b610b12565b6040516101e2919061195b565b60405180910390f35b61020560048036038101906102009190611363565b610b4f565b604051610212919061195b565b60405180910390f35b610223610b8c565b6040516102309190611940565b60405180910390f35b610241610bb0565b005b61025d600480360381019061025891906113bd565b610c0a565b005b610267610f30565b604051610274919061195b565b60405180910390f35b61029760048036038101906102929190611336565b610f43565b005b60006001905090565b600030905090565b60008054906101000a900473ffffffffffffffffffffffffffffffffffffffff1673ffffffffffffffffffffffffffffffffffffffff163373ffffffffffffffffffffffffffffffffffffffff161461030257600080fd5b3373ffffffffffffffffffffffffffffffffffffffff16ff5b60008060038054905014156103335760009050610353565b600060046000848152602001908152602001600020549050600081119150505b919050565b600060028b8b60405160200161036f92919061191c565b60405160208183030381529060405260405161038b91906118b9565b602060405180830381855afa1580156103a8573d6000803e3d6000fd5b5050506040513d601f19601f820116820180604052508101906103cb9190611390565b90506103d681610b4f565b156103e057600080fd5b6103e8611092565b818160400181815250508b81600001819052508a81602001819052508b81606001819052508a8160800181905250898160a0019073ffffffffffffffffffffffffffffffffffffffff16908173ffffffffffffffffffffffffffffffffffffffff1681525050888160e00181905250878161010001819052508681610120018190525085816101400181905250848161016001819052508381610180018190525082816101a001819052506000816101c001901515908115158152505060058190806001815401808255809150506001900390600052602060002090600f020160009091909190915060008201518160000190805190602001906104ed929190611126565b50602082015181600101908051906020019061050a929190611126565b50604082015181600201556060820151816003019080519060200190610531929190611126565b50608082015181600401908051906020019061054e929190611126565b5060a08201518160050160006101000a81548173ffffffffffffffffffffffffffffffffffffffff021916908373ffffffffffffffffffffffffffffffffffffffff16021790555060c0820151816006015560e08201518160070190805190602001906105bc929190611126565b506101008201518160080190805190602001906105da929190611126565b506101208201518160090190805190602001906105f8929190611126565b5061014082015181600a019080519060200190610616929190611126565b5061016082015181600b019080519060200190610634929190611126565b5061018082015181600c019080519060200190610652929190611126565b506101a082015181600d019080519060200190610670929190611126565b506101c082015181600e0160006101000a81548160ff0219169083151502179055505050600060016005805490506106a89190611c25565b905080600660008581526020019081526020016000208190555081602001516040516106d491906118d0565b604051809103902082600001516040516106ee91906118d0565b60405180910390207f6cf1b3ee9b366cf34f41d434689d9453ace1ab010fbe841c938d12d6d7c665988f8f8e8e8e8e8e8e8e8d6101c0015160405161073c9a99989796959493929190611ab7565b60405180910390a350505050505050505050505050565b600060028a60405160200161076891906118d0565b60405160208183030381529060405260405161078491906118b9565b602060405180830381855afa1580156107a1573d6000803e3d6000fd5b5050506040513d601f19601f820116820180604052508101906107c49190611390565b90506107cf81610b12565b156107d957600080fd5b6107e16111ac565b818160600181815250508a81600001819052508981602001819052508a8160400181905250898160800181905250888160a00181905250878160c00181905250868160e001819052508581610100018190525084816101200181905250838161014001819052508281610160018190525060038190806001815401808255809150506001900390600052602060002090600c0201600090919091909150600082015181600001908051906020019061089a929190611126565b5060208201518160010190805190602001906108b7929190611126565b5060408201518160020190805190602001906108d4929190611126565b506060820151816003015560808201518160040190805190602001906108fb929190611126565b5060a0820151816005019080519060200190610918929190611126565b5060c0820151816006019080519060200190610935929190611126565b5060e0820151816007019080519060200190610952929190611126565b50610100820151816008019080519060200190610970929190611126565b5061012082015181600901908051906020019061098e929190611126565b5061014082015181600a0190805190602001906109ac929190611126565b5061016082015181600b0190805190602001906109ca929190611126565b505050600060016003805490506109e19190611c25565b90508060046000858152602001908152602001600020819055508160200151604051610a0d91906118d0565b60405180910390208260000151604051610a2791906118d0565b60405180910390207f1c09db5462168b8fe4246eb51c1d03def28bdeec873f0ded0b018e31e2e444288e8e8e8e8e8e8e8e8e604051610a6e999897969594939291906119eb565b60405180910390a3505050505050505050505050565b60078054610a9190611ced565b80601f0160208091040260200160405190810160405280929190818152602001828054610abd90611ced565b8015610b0a5780601f10610adf57610100808354040283529160200191610b0a565b820191906000526020600020905b815481529060010190602001808311610aed57829003601f168201915b505050505081565b6000806001805490501415610b2a5760009050610b4a565b600060026000848152602001908152602001600020549050600081119150505b919050565b6000806005805490501415610b675760009050610b87565b600060066000848152602001908152602001600020549050600081119150505b919050565b60008054906101000a900473ffffffffffffffffffffffffffffffffffffffff1681565b60008054906101000a900473ffffffffffffffffffffffffffffffffffffffff1673ffffffffffffffffffffffffffffffffffffffff163373ffffffffffffffffffffffffffffffffffffffff1614610c0857600080fd5b565b60006002828486604051602001610c23939291906118e7565b604051602081830303815290604052604051610c3f91906118b9565b602060405180830381855afa158015610c5c573d6000803e3d6000fd5b5050506040513d601f19601f82011682018060405250810190610c7f9190611390565b90506000600285604051602001610c9691906118d0565b604051602081830303815290604052604051610cb291906118b9565b602060405180830381855afa158015610ccf573d6000803e3d6000fd5b5050506040513d601f19601f82011682018060405250810190610cf29190611390565b9050610cfd81610b12565b15610d0757600080fd5b610d0f611210565b85816000018190525085816020018190525083816060018190525084816080019073ffffffffffffffffffffffffffffffffffffffff16908173ffffffffffffffffffffffffffffffffffffffff16815250508281604001818152505060018160c001901515908115158152505060018190806001815401808255809150506001900390600052602060002090600502016000909190919091506000820151816000019080519060200190610dc5929190611126565b506020820151816001019080519060200190610de2929190611126565b50604082015181600201556060820151816003019080519060200190610e09929190611126565b5060808201518160040160006101000a81548173ffffffffffffffffffffffffffffffffffffffff021916908373ffffffffffffffffffffffffffffffffffffffff16021790555060a08201518160040160146101000a81548160ff02191690831515021790555060c08201518160040160156101000a81548160ff0219169083151502179055505050600060018080549050610ea69190611c25565b90508060026000858152602001908152602001600020819055508160000151604051610ed291906118d0565b60405180910390207f460901c2e1d010e289193dbfeee389ea47c8947a6aa111430e7d22acc41c377b8360200151846060015185608001518660c00151604051610f1f9493929190611998565b60405180910390a250505050505050565b600860009054906101000a900460ff1681565b60008054906101000a900473ffffffffffffffffffffffffffffffffffffffff1673ffffffffffffffffffffffffffffffffffffffff163373ffffffffffffffffffffffffffffffffffffffff1614610f9b57600080fd5b600073ffffffffffffffffffffffffffffffffffffffff168173ffffffffffffffffffffffffffffffffffffffff161415610fd557600080fd5b8073ffffffffffffffffffffffffffffffffffffffff1660008054906101000a900473ffffffffffffffffffffffffffffffffffffffff1673ffffffffffffffffffffffffffffffffffffffff167f8be0079c531659141344cd1fd0a4f28419497f9722a3daafe3b4186f6b6457e060405160405180910390a3806000806101000a81548173ffffffffffffffffffffffffffffffffffffffff021916908373ffffffffffffffffffffffffffffffffffffffff16021790555050565b604051806101e001604052806060815260200160608152602001600080191681526020016060815260200160608152602001600073ffffffffffffffffffffffffffffffffffffffff16815260200160008019168152602001606081526020016060815260200160608152602001606081526020016060815260200160608152602001606081526020016000151581525090565b82805461113290611ced565b90600052602060002090601f016020900481019282611154576000855561119b565b82601f1061116d57805160ff191683800117855561119b565b8280016001018555821561119b579182015b8281111561119a57825182559160200191906001019061117f565b5b5090506111a8919061126a565b5090565b6040518061018001604052806060815260200160608152602001606081526020016000801916815260200160608152602001606081526020016060815260200160608152602001606081526020016060815260200160608152602001606081525090565b6040518060e0016040528060608152602001606081526020016000801916815260200160608152602001600073ffffffffffffffffffffffffffffffffffffffff1681526020016000151581526020016000151581525090565b5b8082111561128357600081600090555060010161126b565b5090565b600061129a61129584611bb7565b611b92565b9050828152602081018484840111156112b6576112b5611e06565b5b6112c1848285611cab565b509392505050565b6000813590506112d881611e33565b92915050565b6000813590506112ed81611e4a565b92915050565b60008151905061130281611e4a565b92915050565b600082601f83011261131d5761131c611e01565b5b813561132d848260208601611287565b91505092915050565b60006020828403121561134c5761134b611e10565b5b600061135a848285016112c9565b91505092915050565b60006020828403121561137957611378611e10565b5b6000611387848285016112de565b91505092915050565b6000602082840312156113a6576113a5611e10565b5b60006113b4848285016112f3565b91505092915050565b6000806000606084860312156113d6576113d5611e10565b5b600084013567ffffffffffffffff8111156113f4576113f3611e0b565b5b61140086828701611308565b9350506020611411868287016112c9565b925050604084013567ffffffffffffffff81111561143257611431611e0b565b5b61143e86828701611308565b9150509250925092565b6000806000806000806000806000806101408b8d03121561146c5761146b611e10565b5b60008b013567ffffffffffffffff81111561148a57611489611e0b565b5b6114968d828e01611308565b9a505060208b013567ffffffffffffffff8111156114b7576114b6611e0b565b5b6114c38d828e01611308565b99505060406114d48d828e016112c9565b98505060608b013567ffffffffffffffff8111156114f5576114f4611e0b565b5b6115018d828e01611308565b97505060808b013567ffffffffffffffff81111561152257611521611e0b565b5b61152e8d828e01611308565b96505060a08b013567ffffffffffffffff81111561154f5761154e611e0b565b5b61155b8d828e01611308565b95505060c08b013567ffffffffffffffff81111561157c5761157b611e0b565b5b6115888d828e01611308565b94505060e08b013567ffffffffffffffff8111156115a9576115a8611e0b565b5b6115b58d828e01611308565b9350506101008b013567ffffffffffffffff8111156115d7576115d6611e0b565b5b6115e38d828e01611308565b9250506101208b013567ffffffffffffffff81111561160557611604611e0b565b5b6116118d828e01611308565b9150509295989b9194979a5092959850565b60008060008060008060008060006101208a8c03121561164657611645611e10565b5b60008a013567ffffffffffffffff81111561166457611663611e0b565b5b6116708c828d01611308565b99505060208a013567ffffffffffffffff81111561169157611690611e0b565b5b61169d8c828d01611308565b98505060408a013567ffffffffffffffff8111156116be576116bd611e0b565b5b6116ca8c828d01611308565b97505060608a013567ffffffffffffffff8111156116eb576116ea611e0b565b5b6116f78c828d01611308565b96505060808a013567ffffffffffffffff81111561171857611717611e0b565b5b6117248c828d01611308565b95505060a08a013567ffffffffffffffff81111561174557611744611e0b565b5b6117518c828d01611308565b94505060c08a013567ffffffffffffffff81111561177257611771611e0b565b5b61177e8c828d01611308565b93505060e08a013567ffffffffffffffff81111561179f5761179e611e0b565b5b6117ab8c828d01611308565b9250506101008a013567ffffffffffffffff8111156117cd576117cc611e0b565b5b6117d98c828d01611308565b9150509295985092959850929598565b6117f281611c59565b82525050565b61180961180482611c59565b611d50565b82525050565b61181881611c6b565b82525050565b600061182982611be8565b6118338185611bfe565b9350611843818560208601611cba565b80840191505092915050565b600061185a82611bf3565b6118648185611c09565b9350611874818560208601611cba565b61187d81611e15565b840191505092915050565b600061189382611bf3565b61189d8185611c1a565b93506118ad818560208601611cba565b80840191505092915050565b60006118c5828461181e565b915081905092915050565b60006118dc8284611888565b915081905092915050565b60006118f38286611888565b91506118ff82856117f8565b60148201915061190f8284611888565b9150819050949350505050565b60006119288285611888565b91506119348284611888565b91508190509392505050565b600060208201905061195560008301846117e9565b92915050565b6000602082019050611970600083018461180f565b92915050565b60006020820190508181036000830152611990818461184f565b905092915050565b600060808201905081810360008301526119b2818761184f565b905081810360208301526119c6818661184f565b90506119d560408301856117e9565b6119e2606083018461180f565b95945050505050565b6000610120820190508181036000830152611a06818c61184f565b90508181036020830152611a1a818b61184f565b90508181036040830152611a2e818a61184f565b90508181036060830152611a42818961184f565b90508181036080830152611a56818861184f565b905081810360a0830152611a6a818761184f565b905081810360c0830152611a7e818661184f565b905081810360e0830152611a92818561184f565b9050818103610100830152611aa7818461184f565b90509a9950505050505050505050565b6000610140820190508181036000830152611ad2818d61184f565b90508181036020830152611ae6818c61184f565b90508181036040830152611afa818b61184f565b90508181036060830152611b0e818a61184f565b90508181036080830152611b22818961184f565b905081810360a0830152611b36818861184f565b905081810360c0830152611b4a818761184f565b905081810360e0830152611b5e818661184f565b9050818103610100830152611b73818561184f565b9050611b8361012083018461180f565b9b9a5050505050505050505050565b6000611b9c611bad565b9050611ba88282611d1f565b919050565b6000604051905090565b600067ffffffffffffffff821115611bd257611bd1611dd2565b5b611bdb82611e15565b9050602081019050919050565b600081519050919050565b600081519050919050565b600081905092915050565b600082825260208201905092915050565b600081905092915050565b6000611c3082611ca1565b9150611c3b83611ca1565b925082821015611c4e57611c4d611d74565b5b828203905092915050565b6000611c6482611c81565b9050919050565b60008115159050919050565b6000819050919050565b600073ffffffffffffffffffffffffffffffffffffffff82169050919050565b6000819050919050565b82818337600083830152505050565b60005b83811015611cd8578082015181840152602081019050611cbd565b83811115611ce7576000848401525b50505050565b60006002820490506001821680611d0557607f821691505b60208210811415611d1957611d18611da3565b5b50919050565b611d2882611e15565b810181811067ffffffffffffffff82111715611d4757611d46611dd2565b5b80604052505050565b6000611d5b82611d62565b9050919050565b6000611d6d82611e26565b9050919050565b7f4e487b7100000000000000000000000000000000000000000000000000000000600052601160045260246000fd5b7f4e487b7100000000000000000000000000000000000000000000000000000000600052602260045260246000fd5b7f4e487b7100000000000000000000000000000000000000000000000000000000600052604160045260246000fd5b600080fd5b600080fd5b600080fd5b600080fd5b6000601f19601f8301169050919050565b60008160601b9050919050565b611e3c81611c59565b8114611e4757600080fd5b50565b611e5381611c77565b8114611e5e57600080fd5b5056fea26469706673582212201330832d7020f6c4dc555dde12cd0d646b1ba1e114dd852472184a7f04aeb22964736f6c6343000805003355707065726261792053797374656d732043757272656e74466f72436172626f6e205631",
  "immutableReferences": {},
  "source": "pragma solidity >=0.4.21 <0.8.6;\r\npragma experimental ABIEncoderV2;\r\n//\"SPDX-License-Identifier: UNLICENSED\" for non-open-source code. Please see https://spdx.org for more information.\r\nimport \"./Ownable.sol\";\r\nimport \"./DateLib.sol\";\r\n\r\n/// @title CurrentForCarbon\r\n/// @author Dave Hardin\r\n/// notice \r\ncontract CurrentForCarbon is Ownable {\r\n    using DateLib for DateLib.DateTime;\r\n\r\n    struct GamePlayer {\r\n        string gamePlayerIDIdx;\r\n        string gamePlayerID;\r\n        bytes32 gamePlayerSignature; // sha256 of dataConnectionString, gamePlayerAddress, gamePlayerID\r\n        string dataConnectionString;\r\n        address gamePlayerAddress;  \r\n        bool signatureMatches;\r\n        bool active;\r\n    }\r\n\r\n    struct GameEvent {\r\n        string gameEventIDIdx;    \r\n        string gameEventNameIdx;    \r\n        string gameEventID;    \r\n        bytes32 gameEventSignature;\r\n        string gameEventName;    \r\n        string gameEventType;  \r\n        string gameEventStartTime;     \r\n        string gameEventEndTime;       \r\n        string gameEventDuration;\r\n        string dollarPerPoint;\r\n        string pointsPerWatt;\r\n        string pointsPerPercent;\r\n     }\r\n\r\n    struct GameResult {\r\n        string gamePlayerIDIdx;   \r\n        string gameEventIDIdx;    \r\n        bytes32 gameResultID;  //sha256 of playerid + eventID\r\n        string gamePlayerID;   \r\n        string gameEventID;    \r\n        address gamePlayerAddress;   \r\n        bytes32 gamePlayerSignature;\r\n        string averagePowerInWatts;\r\n        string baselineAveragePowerInWatts;\r\n        string deltaAveragePowerInWatts;\r\n        string percentPoints;\r\n        string wattPoints;\r\n        string totalPointsAwarded;\r\n        string awardValue;\r\n        bool confirmed;\r\n    }\r\n   \r\n   // EVENTS\r\n   event GamePlayerEvent(\r\n        string indexed gamePlayerIDIdx,\r\n        string gamePlayerID,\r\n        string dataConnectionString,\r\n        address gamePlayerAddress,\r\n        bool active\r\n      \r\n   );\r\n\r\n    event GameEventEvent(\r\n        string indexed gameEventIDIdx,\r\n        string indexed gameEventNameIdx,\r\n        string gameEventID,\r\n        string gameEventName,\r\n        string gameEventType,  \r\n        string gameEventStartTime,\r\n        string gameEventEndTime,     \r\n        string gameEventDuration,\r\n        string dollarPerPoint,\r\n        string pointsPerWatt,\r\n        string pointsPerPercent\r\n    );\r\n\r\n    event GameResultEvent(\r\n        string indexed gamePlayerIDIdx,\r\n        string indexed gameEventIDIdx,\r\n        string gamePlayerID,\r\n        string gameEventID,\r\n        string averagePowerInWatts,\r\n        string baselineAveragePowerInWatts,\r\n        string deltaAveragePowerInWatts,\r\n        string percentPoints,\r\n        string wattPoints,\r\n        string totalPointsAwarded,\r\n        string awardValue,\r\n        bool confirmed\r\n    );\r\n  \r\n    GamePlayer[] _gamePlayers;\r\n    mapping(bytes32 => uint) _gamePlayerIDHashToIndex;\r\n    GameEvent[] _gameEvents;\r\n    mapping(bytes32 => uint) _gameEventIDHashToIndex;\r\n    GameResult[] _gameResults;\r\n    mapping(bytes32 => uint) _gameResultIDHashToIndex;\r\n    \r\n    string public _contractName;\r\n\r\n    /// External State Variables\r\n    bool public HasResultReadyFlag = false;\r\n\r\n    /// construction of contract\r\n    constructor ()  {\r\n        _contractName = \"Upperbay Systems CurrentForCarbon V1\";\r\n    }\r\n  \r\n    // function _getDataItemIndex(bytes32 _dataItemId) private view returns (uint) {\r\n    //     return dataItemIdToIndex[_dataItemId]-1;\r\n    // }\r\n      \r\n    function GamePlayerExists(bytes32 _gamePlayerIDHash) public view returns (bool) {\r\n        if (_gamePlayers.length == 0)\r\n            return false;\r\n        uint index = _gamePlayerIDHashToIndex[_gamePlayerIDHash];\r\n        return (index > 0);\r\n    }\r\n\r\n    function GameEventExists(bytes32 _gameEventIDHash) public view returns (bool) {\r\n        if (_gameEvents.length == 0)\r\n            return false;\r\n        uint index = _gameEventIDHashToIndex[_gameEventIDHash];\r\n        return (index > 0);\r\n    }\r\n\r\n    function GameResultExists(bytes32 _gameResultIDHash) public view returns (bool) {\r\n        if (_gameResults.length == 0)\r\n            return false;\r\n        uint index = _gameResultIDHashToIndex[_gameResultIDHash];\r\n        return (index > 0);\r\n    }\r\n\r\n    \r\n\r\n    function  AddGamePlayer (\r\n        string memory gamePlayerID,\r\n        address playerAddress,\r\n        string memory dataConnectionString\r\n       \r\n        )  public { //onlyOwner\r\n\r\n        //hash the crucial info to get a unique id\r\n        //bytes32 id = keccak256(abi.encodePacked(_name, _description, _accessPath, _creationTime));\r\n        bytes32 gamePlayerSignature = sha256 (abi.encodePacked(dataConnectionString, playerAddress,gamePlayerID));\r\n        bytes32 gamePlayerIDHash = sha256 (abi.encodePacked(gamePlayerID));\r\n        //require that the match be unique (not already added)\r\n        require(!GamePlayerExists(gamePlayerIDHash));\r\n\r\n        GamePlayer memory gamePlayer;\r\n        gamePlayer.gamePlayerIDIdx = gamePlayerID; \r\n        gamePlayer.gamePlayerID = gamePlayerID; \r\n        gamePlayer.dataConnectionString = dataConnectionString;   \r\n        gamePlayer.gamePlayerAddress = playerAddress;\r\n        gamePlayer.gamePlayerSignature = gamePlayerSignature;\r\n        gamePlayer.active = true;\r\n       \r\n        _gamePlayers.push(gamePlayer);\r\n        uint newIndex = _gamePlayers.length - 1;\r\n        _gamePlayerIDHashToIndex[gamePlayerIDHash] = newIndex;\r\n        \r\n        emit GamePlayerEvent(\r\n                            gamePlayer.gamePlayerIDIdx,\r\n                            gamePlayer.gamePlayerID,\r\n                            gamePlayer.dataConnectionString,\r\n                            gamePlayer.gamePlayerAddress,\r\n                            gamePlayer.active\r\n                            );\r\n    }\r\n\r\n    function AddGameEvent (\r\n        string memory gameEventID,\r\n        string memory gameEventName,\r\n        string memory gameEventType,\r\n        string memory gameEventStartTime,\r\n        string memory gameEventEndTime,     \r\n        string memory gameEventDuration,\r\n        string memory dollarPerPoint,\r\n        string memory pointsPerWatt,\r\n        string memory pointsPerPercent\r\n        )  public \r\n    { //onlyOwner\r\n\r\n        //hash the crucial info to get a unique id\r\n        //bytes32 id = keccak256(abi.encodePacked(_name, _description, _accessPath, _creationTime));\r\n        bytes32 gameEventIDHash = sha256 (abi.encodePacked(gameEventID));\r\n        \r\n        //require that the match be unique (not already added)\r\n        require(!GamePlayerExists(gameEventIDHash));\r\n        \r\n        GameEvent memory gameEvent;\r\n        gameEvent.gameEventSignature = gameEventIDHash;\r\n        gameEvent.gameEventIDIdx = gameEventID;\r\n        gameEvent.gameEventNameIdx = gameEventName;   \r\n        gameEvent.gameEventID = gameEventID;\r\n        gameEvent.gameEventName = gameEventName;   \r\n        gameEvent.gameEventType = gameEventType;\r\n        gameEvent.gameEventStartTime = gameEventStartTime;\r\n        gameEvent.gameEventEndTime = gameEventEndTime;\r\n        gameEvent.gameEventDuration = gameEventDuration;\r\n        gameEvent.dollarPerPoint = dollarPerPoint;\r\n        gameEvent.pointsPerWatt = pointsPerWatt;\r\n        gameEvent.pointsPerPercent = pointsPerPercent;\r\n\r\n        _gameEvents.push(gameEvent);\r\n        uint newIndex = _gameEvents.length - 1;\r\n        _gameEventIDHashToIndex[gameEventIDHash] = newIndex;\r\n\r\n\r\n        emit GameEventEvent(\r\n                gameEvent.gameEventIDIdx,\r\n                gameEvent.gameEventNameIdx,\r\n                gameEventID,\r\n                gameEventName,\r\n                gameEventType,  \r\n                gameEventStartTime,\r\n                gameEventEndTime,     \r\n                gameEventDuration,\r\n                dollarPerPoint,\r\n                pointsPerWatt,\r\n                pointsPerPercent  \r\n                );\r\n    }\r\n\r\n  function AddGameResult (\r\n        string memory gamePlayerID,   \r\n        string memory gameEventID, \r\n        address gamePlayerAddress,   \r\n        string memory averagePowerInWatts,\r\n        string memory baselineAveragePowerInWatts,\r\n        string memory deltaAveragePowerInWatts,\r\n        string memory percentPoints,\r\n        string memory wattPoints,\r\n        string memory totalPointsAwarded,\r\n        string memory awardValue\r\n        )     public  \r\n    { //onlyOwner\r\n\r\n        //TODO Check if player is active!!!\r\n\r\n        //hash the crucial info to get a unique id\r\n        //bytes32 id = keccak256(abi.encodePacked(_name, _description, _accessPath, _creationTime));\r\n        bytes32 gameResultIDHash = sha256 (abi.encodePacked(gamePlayerID,gameEventID));\r\n        \r\n        //require that the match be unique (not already added)\r\n        require(!GameResultExists(gameResultIDHash));\r\n        \r\n        GameResult memory gameResult;\r\n        gameResult.gameResultID = gameResultIDHash;\r\n        gameResult.gamePlayerIDIdx = gamePlayerID;\r\n        gameResult.gameEventIDIdx = gameEventID;   \r\n        gameResult.gamePlayerID = gamePlayerID;\r\n        gameResult.gameEventID = gameEventID;   \r\n        gameResult.gamePlayerAddress = gamePlayerAddress;\r\n        //gameResult.gamePlayerSignature = gamePlayerSignature;\r\n        gameResult.averagePowerInWatts = averagePowerInWatts;\r\n        gameResult.baselineAveragePowerInWatts = baselineAveragePowerInWatts;\r\n        gameResult.deltaAveragePowerInWatts = deltaAveragePowerInWatts;\r\n        gameResult.percentPoints = percentPoints;\r\n        gameResult.wattPoints = wattPoints;\r\n        gameResult.totalPointsAwarded = totalPointsAwarded;\r\n        gameResult.awardValue = awardValue;\r\n        gameResult.confirmed = false;\r\n\r\n        _gameResults.push(gameResult);\r\n        uint newIndex = _gameResults.length - 1;\r\n        _gameResultIDHashToIndex[gameResultIDHash] = newIndex;\r\n       \r\n        emit GameResultEvent(\r\n                    gameResult.gamePlayerIDIdx,\r\n                    gameResult.gameEventIDIdx,\r\n                    gamePlayerID,\r\n                    gameEventID,\r\n                    averagePowerInWatts,\r\n                    baselineAveragePowerInWatts,\r\n                    deltaAveragePowerInWatts,\r\n                    percentPoints,\r\n                    wattPoints,\r\n                    totalPointsAwarded,\r\n                    awardValue,\r\n                    gameResult.confirmed  \r\n                     );\r\n    }\r\n\r\n\r\n\r\n \r\n ///////////////////////////\r\n//   function logAllPlayers() public {\r\n//        // bytes32[] memory output = new bytes32[](_gamePlayers.length);\r\n\r\n//         //get all ids\r\n//         if (_gamePlayers.length > 0) {\r\n//             //uint index = 0;\r\n//             for (uint n = _gamePlayers.length; n > 0; n--) {\r\n//                 emit GamePlayerEvent(\r\n//                     _gamePlayers[n-1].gamePlayerID,\r\n//                     _gamePlayers[n-1].gamePlayerSignature,\r\n//                     _gamePlayers[n-1].dataConnectionString,\r\n//                     _gamePlayers[n-1].gamePlayerAddress,\r\n//                     _gamePlayers[n-1].active\r\n//                     );  \r\n//                 //output[index++] = _gamePlayers[n-1].gamePlayerSignature;\r\n//             }\r\n//         }\r\n//     }\r\n\r\n//     function logAllEvents() public view returns (string[] memory) {\r\n//         string[] memory output = new string[](_gameEvents.length);\r\n\r\n//         //get all ids\r\n//         if (_gameEvents.length > 0) {\r\n//             uint index = 0;\r\n//             for (uint n = _gameEvents.length; n > 0; n--) {\r\n//                 output[index++] = _gameEvents[n-1].gameEventID;\r\n//             }\r\n//         }\r\n//         return output;\r\n//     }\r\n\r\n// function logAllResults() public view returns (bytes32[] memory) {\r\n//         bytes32[] memory output = new bytes32[](_gameResults.length);\r\n\r\n//         //get all ids\r\n//         if (_gameResults.length > 0) {\r\n//             uint index = 0;\r\n//             for (uint n = _gameResults.length; n > 0; n--) {\r\n//                 output[index++] = _gameResults[n-1].gameResultID;\r\n//             }\r\n//         }\r\n//         return output;\r\n//     }\r\n\r\n\r\n// /////////////////////////\r\n//     function getAllPlayers() public view returns (string[] memory) {\r\n//         string[] memory output = new string[](_gamePlayers.length);\r\n\r\n//         //get all ids\r\n//         if (_gamePlayers.length > 0) {\r\n//             uint index = 0;\r\n//             for (uint n = _gamePlayers.length; n > 0; n--) {\r\n//                 output[index++] = _gamePlayers[n-1].gamePlayerID;\r\n//             }\r\n//         }\r\n//         return output;\r\n//     }\r\n\r\n//     function getAllEvents() public view returns (string[] memory) {\r\n//         string[] memory output = new string[](_gameEvents.length);\r\n\r\n//         //get all ids\r\n//         if (_gameEvents.length > 0) {\r\n//             uint index = 0;\r\n//             for (uint n = _gameEvents.length; n > 0; n--) {\r\n//                 output[index++] = _gameEvents[n-1].gameEventID;\r\n//             }\r\n//         }\r\n//         return output;\r\n//     }\r\n\r\n//     function getAllResults() public view returns (bytes32[] memory) {\r\n//         bytes32[] memory output = new bytes32[](_gameResults.length);\r\n\r\n//         //get all ids\r\n//         if (_gameResults.length > 0) {\r\n//             uint index = 0;\r\n//             for (uint n = _gameResults.length; n > 0; n--) {\r\n//                 output[index++] = _gameResults[n-1].gameResultID;\r\n//             }\r\n//         }\r\n//         return output;\r\n//     }\r\n//////////////////////////////////\r\n\r\n\r\n\r\n    /// notice can be used by a client contract to ensure that they've connected to this contract interface successfully\r\n    /// @return true, unconditionally\r\n    function testConnection() public pure returns (bool) \r\n    {\r\n        return true;\r\n    }\r\n\r\n\r\n\r\n    /// notice gets the address of this contract\r\n    /// @return address\r\n    function getAddress() public view returns (address) \r\n    {\r\n        return address(this);\r\n    }\r\n\r\n\r\n \r\n    /// notice for testing\r\n    function addTestData() external onlyOwner \r\n    {\r\n        //addDataItem(\"ElectricDemand\", \"Electricity Demand for 13470\", \"ThingSpeak\", \"Now\");\r\n        // addDataItem(\"Macquiao vs. Payweather\", \"Macquiao|Payweather\", 2, DateLib.DateTime(2018, 8, 15, 0, 0, 0, 0, 0).toUnixTimestamp());\r\n        // addDataItem(\"Pacweather vs. Macarthur\", \"Pacweather|Macarthur\", 2, DateLib.DateTime(2018, 9, 3, 0, 0, 0, 0, 0).toUnixTimestamp());\r\n        // addDataItem(\"Macarthur vs. Truman\", \"Macarthur|Truman\", 2, DateLib.DateTime(2018, 9, 3, 0, 0, 0, 0, 0).toUnixTimestamp());\r\n        // addDataItem(\"Macaque vs. Pregunto\", \"Macaque|Pregunto\", 2, DateLib.DateTime(2018, 9, 21, 0, 0, 0, 0, 0).toUnixTimestamp());\r\n        // addDataItem(\"Farsworth vs. Wernstrom\", \"Farsworth|Wernstrom\", 2, DateLib.DateTime(2018, 9, 29, 0, 0, 0, 0, 0).toUnixTimestamp());\r\n        // addDataItem(\"Fortinbras vs. Hamlet\", \"Fortinbras|Hamlet\", 2, DateLib.DateTime(2018, 10, 10, 0, 0, 0, 0, 0).toUnixTimestamp());\r\n        // addDataItem(\"Foolicle vs. Pretendo\", \"Foolicle|Pretendo\", 2, DateLib.DateTime(2018, 11, 11, 0, 0, 0, 0, 0).toUnixTimestamp());\r\n        // addDataItem(\"Parthian vs. Scythian\", \"Parthian|Scythian\", 2, DateLib.DateTime(2018, 11, 12, 0, 0, 0, 0, 0).toUnixTimestamp());\r\n    }\r\n\r\n    // function StringtoAddress(string memory _a) internal pure returns (address _parsedAddress) {\r\n    //     bytes memory tmp = bytes(_a);\r\n    //     uint160 iaddr = 0;\r\n    //     uint160 b1;\r\n    //     uint160 b2;\r\n    //     for (uint i = 2; i < 2 + 2 * 20; i += 2) {\r\n    //         iaddr *= 256;\r\n    //         b1 = uint160(uint8(tmp[i]));\r\n    //         b2 = uint160(uint8(tmp[i + 1]));\r\n    //         if ((b1 >= 97) && (b1 <= 102)) {\r\n    //             b1 -= 87;\r\n    //         } else if ((b1 >= 65) && (b1 <= 70)) {\r\n    //             b1 -= 55;\r\n    //         } else if ((b1 >= 48) && (b1 <= 57)) {\r\n    //             b1 -= 48;\r\n    //         }\r\n    //         if ((b2 >= 97) && (b2 <= 102)) {\r\n    //             b2 -= 87;\r\n    //         } else if ((b2 >= 65) && (b2 <= 70)) {\r\n    //             b2 -= 55;\r\n    //         } else if ((b2 >= 48) && (b2 <= 57)) {\r\n    //             b2 -= 48;\r\n    //         }\r\n    //         iaddr += (b1 * 16 + b2);\r\n    //     }\r\n    //     return address(iaddr);\r\n    // }\r\n\r\n\r\n    // function StringToBytes32(string memory source) internal pure returns (bytes32 result) {\r\n    //     bytes memory tempEmptyStringTest = bytes(source);\r\n    //     if (tempEmptyStringTest.length == 0) {\r\n    //         return 0x0;\r\n    //     }\r\n    //     assembly {\r\n    //         result := mload(add(source, 32))\r\n    //     }\r\n    // }\r\n\r\n    function Bytes32ToString(bytes32 x) internal pure returns (string memory)  {\r\n    bytes memory bytesString = new bytes(32);\r\n    uint charCount = 0;\r\n    for (uint j = 0; j < 32; j++) {\r\n        bytes1 char = bytes1(bytes32(uint(x) * 2 ** (8 * j)));\r\n        if (char != 0) {\r\n            bytesString[charCount] = char;\r\n            charCount++;\r\n        }\r\n    }\r\n    bytes memory bytesStringTrimmed = new bytes(charCount);\r\n    for (uint j = 0; j < charCount; j++) {\r\n        bytesStringTrimmed[j] = bytesString[j];\r\n    }\r\n    return string(bytesStringTrimmed);\r\n    }\r\n\r\n    // function StringCompare(string memory a, string memory b) internal pure returns (bool) {\r\n    // //function HashCompareWithLengthCheck(string a, string b) internal returns (bool) {\r\n    //     if(bytes(a).length != bytes(b).length) {\r\n    //         return false;\r\n    //     } else {\r\n    //         return keccak256(abi.encodePacked(a)) == keccak256(abi.encodePacked(b));\r\n    //     }\r\n    // }\r\n\r\n  /// destroy the contract and reclaim the leftover funds.\r\n    function kill() public onlyOwner \r\n    {\r\n        //require(msg.sender == owner);\r\n        selfdestruct(payable(msg.sender));\r\n    }\r\n}\r\n",
  "sourcePath": "F:\\c2\\Test\\ethoracle\\contracts\\CurrentForCarbon.sol",
  "compiler": {
    "name": "solc",
    "version": "0.8.5+commit.a4f2e591.Emscripten.clang"
  },
  "schemaVersion": "3.1.0",
  "updatedAt": "2021-06-21T19:00:55.577Z",
  "networkType": "ethereum",
  "devdoc": {
    "author": "Dave Hardin notice ",
    "kind": "dev",
    "methods": {
      "getAddress()": {
        "returns": {
          "_0": "address"
        }
      },
      "testConnection()": {
        "returns": {
          "_0": "true, unconditionally"
        }
      },
      "transferOwnership(address)": {
        "details": "Allows the current owner to transfer control of the contract to a newOwner.",
        "params": {
          "newOwner": "The address to transfer ownership to."
        }
      }
    },
    "title": "CurrentForCarbon",
    "version": 1
  },
  "userdoc": {
    "kind": "user",
    "methods": {
      "HasResultReadyFlag()": {
        "notice": "External State Variables"
      },
      "addTestData()": {
        "notice": "notice for testing"
      },
      "constructor": {
        "notice": "construction of contract"
      },
      "getAddress()": {
        "notice": "notice gets the address of this contract"
      },
      "kill()": {
        "notice": "destroy the contract and reclaim the leftover funds."
      },
      "testConnection()": {
        "notice": "notice can be used by a client contract to ensure that they've connected to this contract interface successfully"
      }
    },
    "version": 1
  }
}