{
    "contractName": "CurrentForCarbon",
    "abi": [
        {
            "inputs": [],
            "stateMutability": "nonpayable",
            "type": "constructor"
        },
        {
            "anonymous": false,
            "inputs": [
                {
                    "indexed": true,
                    "internalType": "string",
                    "name": "gameEventIDIdx",
                    "type": "string"
                },
                {
                    "indexed": true,
                    "internalType": "string",
                    "name": "gameEventNameIdx",
                    "type": "string"
                },
                {
                    "indexed": false,
                    "internalType": "string",
                    "name": "gameEventID",
                    "type": "string"
                },
                {
                    "indexed": false,
                    "internalType": "string",
                    "name": "gameEventName",
                    "type": "string"
                },
                {
                    "indexed": false,
                    "internalType": "string",
                    "name": "gameEventType",
                    "type": "string"
                },
                {
                    "indexed": false,
                    "internalType": "string",
                    "name": "gameEventStartTime",
                    "type": "string"
                },
                {
                    "indexed": false,
                    "internalType": "string",
                    "name": "gameEventEndTime",
                    "type": "string"
                },
                {
                    "indexed": false,
                    "internalType": "string",
                    "name": "gameEventDuration",
                    "type": "string"
                },
                {
                    "indexed": false,
                    "internalType": "string",
                    "name": "dollarPerPoint",
                    "type": "string"
                },
                {
                    "indexed": false,
                    "internalType": "string",
                    "name": "pointsPerWatt",
                    "type": "string"
                },
                {
                    "indexed": false,
                    "internalType": "string",
                    "name": "pointsPerPercent",
                    "type": "string"
                }
            ],
            "name": "GameEventEvent",
            "type": "event"
        },
        {
            "anonymous": false,
            "inputs": [
                {
                    "indexed": true,
                    "internalType": "string",
                    "name": "gamePlayerIDIdx",
                    "type": "string"
                },
                {
                    "indexed": false,
                    "internalType": "string",
                    "name": "gamePlayerID",
                    "type": "string"
                },
                {
                    "indexed": false,
                    "internalType": "string",
                    "name": "dataConnectionString",
                    "type": "string"
                },
                {
                    "indexed": false,
                    "internalType": "address",
                    "name": "gamePlayerAddress",
                    "type": "address"
                },
                {
                    "indexed": false,
                    "internalType": "bool",
                    "name": "active",
                    "type": "bool"
                }
            ],
            "name": "GamePlayerEvent",
            "type": "event"
        },
        {
            "anonymous": false,
            "inputs": [
                {
                    "indexed": true,
                    "internalType": "string",
                    "name": "gamePlayerIDIdx",
                    "type": "string"
                },
                {
                    "indexed": true,
                    "internalType": "string",
                    "name": "gameEventIDIdx",
                    "type": "string"
                },
                {
                    "indexed": false,
                    "internalType": "string",
                    "name": "gamePlayerID",
                    "type": "string"
                },
                {
                    "indexed": false,
                    "internalType": "string",
                    "name": "gameEventID",
                    "type": "string"
                },
                {
                    "indexed": false,
                    "internalType": "string",
                    "name": "averagePowerInWatts",
                    "type": "string"
                },
                {
                    "indexed": false,
                    "internalType": "string",
                    "name": "baselineAveragePowerInWatts",
                    "type": "string"
                },
                {
                    "indexed": false,
                    "internalType": "string",
                    "name": "deltaAveragePowerInWatts",
                    "type": "string"
                },
                {
                    "indexed": false,
                    "internalType": "string",
                    "name": "percentPoints",
                    "type": "string"
                },
                {
                    "indexed": false,
                    "internalType": "string",
                    "name": "wattPoints",
                    "type": "string"
                },
                {
                    "indexed": false,
                    "internalType": "string",
                    "name": "totalPointsAwarded",
                    "type": "string"
                },
                {
                    "indexed": false,
                    "internalType": "string",
                    "name": "awardValue",
                    "type": "string"
                },
                {
                    "indexed": false,
                    "internalType": "bool",
                    "name": "confirmed",
                    "type": "bool"
                }
            ],
            "name": "GameResultEvent",
            "type": "event"
        },
        {
            "anonymous": false,
            "inputs": [
                {
                    "indexed": true,
                    "internalType": "address",
                    "name": "previousOwner",
                    "type": "address"
                },
                {
                    "indexed": true,
                    "internalType": "address",
                    "name": "newOwner",
                    "type": "address"
                }
            ],
            "name": "OwnershipTransferred",
            "type": "event"
        },
        {
            "inputs": [
                {
                    "internalType": "string",
                    "name": "gameEventID",
                    "type": "string"
                },
                {
                    "internalType": "string",
                    "name": "gameEventName",
                    "type": "string"
                },
                {
                    "internalType": "string",
                    "name": "gameEventType",
                    "type": "string"
                },
                {
                    "internalType": "string",
                    "name": "gameEventStartTime",
                    "type": "string"
                },
                {
                    "internalType": "string",
                    "name": "gameEventEndTime",
                    "type": "string"
                },
                {
                    "internalType": "string",
                    "name": "gameEventDuration",
                    "type": "string"
                },
                {
                    "internalType": "string",
                    "name": "dollarPerPoint",
                    "type": "string"
                },
                {
                    "internalType": "string",
                    "name": "pointsPerWatt",
                    "type": "string"
                },
                {
                    "internalType": "string",
                    "name": "pointsPerPercent",
                    "type": "string"
                }
            ],
            "name": "AddGameEvent",
            "outputs": [],
            "stateMutability": "nonpayable",
            "type": "function"
        },
        {
            "inputs": [
                {
                    "internalType": "string",
                    "name": "gamePlayerID",
                    "type": "string"
                },
                {
                    "internalType": "address",
                    "name": "playerAddress",
                    "type": "address"
                },
                {
                    "internalType": "string",
                    "name": "dataConnectionString",
                    "type": "string"
                }
            ],
            "name": "AddGamePlayer",
            "outputs": [],
            "stateMutability": "nonpayable",
            "type": "function"
        },
        {
            "inputs": [
                {
                    "internalType": "string",
                    "name": "gamePlayerID",
                    "type": "string"
                },
                {
                    "internalType": "string",
                    "name": "gameEventID",
                    "type": "string"
                },
                {
                    "internalType": "address",
                    "name": "gamePlayerAddress",
                    "type": "address"
                },
                {
                    "internalType": "string",
                    "name": "averagePowerInWatts",
                    "type": "string"
                },
                {
                    "internalType": "string",
                    "name": "baselineAveragePowerInWatts",
                    "type": "string"
                },
                {
                    "internalType": "string",
                    "name": "deltaAveragePowerInWatts",
                    "type": "string"
                },
                {
                    "internalType": "string",
                    "name": "percentPoints",
                    "type": "string"
                },
                {
                    "internalType": "string",
                    "name": "wattPoints",
                    "type": "string"
                },
                {
                    "internalType": "string",
                    "name": "totalPointsAwarded",
                    "type": "string"
                },
                {
                    "internalType": "string",
                    "name": "awardValue",
                    "type": "string"
                }
            ],
            "name": "AddGameResult",
            "outputs": [],
            "stateMutability": "nonpayable",
            "type": "function"
        },
        {
            "inputs": [
                {
                    "internalType": "bytes32",
                    "name": "_gameEventIDHash",
                    "type": "bytes32"
                }
            ],
            "name": "GameEventExists",
            "outputs": [
                {
                    "internalType": "bool",
                    "name": "",
                    "type": "bool"
                }
            ],
            "stateMutability": "view",
            "type": "function"
        },
        {
            "inputs": [
                {
                    "internalType": "bytes32",
                    "name": "_gamePlayerIDHash",
                    "type": "bytes32"
                }
            ],
            "name": "GamePlayerExists",
            "outputs": [
                {
                    "internalType": "bool",
                    "name": "",
                    "type": "bool"
                }
            ],
            "stateMutability": "view",
            "type": "function"
        },
        {
            "inputs": [
                {
                    "internalType": "bytes32",
                    "name": "_gameResultIDHash",
                    "type": "bytes32"
                }
            ],
            "name": "GameResultExists",
            "outputs": [
                {
                    "internalType": "bool",
                    "name": "",
                    "type": "bool"
                }
            ],
            "stateMutability": "view",
            "type": "function"
        },
        {
            "inputs": [],
            "name": "HasResultReadyFlag",
            "outputs": [
                {
                    "internalType": "bool",
                    "name": "",
                    "type": "bool"
                }
            ],
            "stateMutability": "view",
            "type": "function"
        },
        {
            "inputs": [],
            "name": "_contractName",
            "outputs": [
                {
                    "internalType": "string",
                    "name": "",
                    "type": "string"
                }
            ],
            "stateMutability": "view",
            "type": "function"
        },
        {
            "inputs": [],
            "name": "addTestData",
            "outputs": [],
            "stateMutability": "nonpayable",
            "type": "function"
        },
        {
            "inputs": [],
            "name": "getAddress",
            "outputs": [
                {
                    "internalType": "address",
                    "name": "",
                    "type": "address"
                }
            ],
            "stateMutability": "view",
            "type": "function"
        },
        {
            "inputs": [],
            "name": "kill",
            "outputs": [],
            "stateMutability": "nonpayable",
            "type": "function"
        },
        {
            "inputs": [],
            "name": "owner",
            "outputs": [
                {
                    "internalType": "address",
                    "name": "",
                    "type": "address"
                }
            ],
            "stateMutability": "view",
            "type": "function"
        },
        {
            "inputs": [],
            "name": "testConnection",
            "outputs": [
                {
                    "internalType": "bool",
                    "name": "",
                    "type": "bool"
                }
            ],
            "stateMutability": "pure",
            "type": "function"
        },
        {
            "inputs": [
                {
                    "internalType": "address",
                    "name": "newOwner",
                    "type": "address"
                }
            ],
            "name": "transferOwnership",
            "outputs": [],
            "stateMutability": "nonpayable",
            "type": "function"
        }
    ],
    "bytecode": "60806040526008805460ff191690553480156200001b57600080fd5b50600080546001600160a01b031916331790556040805160608101909152602480825262001769602083013980516200005d9160079160209091019062000064565b5062000147565b82805462000072906200010a565b90600052602060002090601f016020900481019282620000965760008555620000e1565b82601f10620000b157805160ff1916838001178555620000e1565b82800160010185558215620000e1579182015b82811115620000e1578251825591602001919060010190620000c4565b50620000ef929150620000f3565b5090565b5b80821115620000ef5760008155600101620000f4565b600181811c908216806200011f57607f821691505b602082108114156200014157634e487b7160e01b600052602260045260246000fd5b50919050565b61161280620001576000396000f3fe608060405234801561001057600080fd5b50600436106100ea5760003560e01c80637954fd321161008c578063a212b45411610066578063a212b454146101b2578063c7604ab6146101ba578063e0b5cca9146101cd578063f2fde38b146101da57600080fd5b80637954fd32146101795780638a5ed70b1461018c5780638da5cb5b1461019f57600080fd5b806351df2a12116100c857806351df2a121461012b578063584625111461013e5780636625f6581461015157806369ab83be1461016457600080fd5b80633412a15c146100ef57806338cc48311461010757806341c0e1b514610121575b600080fd5b60015b60405190151581526020015b60405180910390f35b305b6040516001600160a01b0390911681526020016100fe565b6101296101ed565b005b6100f2610139366004610efc565b610207565b61012961014c366004610fa2565b61022e565b61012961015f366004611119565b61061c565b61016c61097a565b6040516100fe9190611341565b6100f2610187366004610efc565b610a08565b6100f261019a366004610efc565b610a2f565b600054610109906001600160a01b031681565b610129610a56565b6101296101c8366004610f2e565b610a6f565b6008546100f29060ff1681565b6101296101e8366004610eda565b610d13565b6000546001600160a01b0316331461020457600080fd5b33ff5b60035460009061021957506000919050565b50600090815260046020526040902054151590565b600060028b8b604051602001610245929190611312565b60408051601f198184030181529082905261025f916112aa565b602060405180830381855afa15801561027c573d6000803e3d6000fd5b5050506040513d601f19601f8201168201806040525081019061029f9190610f15565b90506102aa81610a2f565b156102b457600080fd5b61033e604051806101e00160405280606081526020016060815260200160008019168152602001606081526020016060815260200160006001600160a01b0316815260200160008019168152602001606081526020016060815260200160608152602001606081526020016060815260200160608152602001606081526020016000151581525090565b604081018290528b815260208082018c9052606082018d9052608082018c90526001600160a01b038b1660a083015260e082018a9052610100820189905261012082018890526101408201879052610160820186905261018082018590526101a0820184905260006101c08301819052600580546001810182559152825180518493600f9093027f036b6384b5eca791c62761152d0c79bb0604c104a5fb6f4eb0703f3154bb3db001926103f6928492910190610d98565b50602082810151805161040f9260018501920190610d98565b506040820151600282015560608201518051610435916003840191602090910190610d98565b5060808201518051610451916004840191602090910190610d98565b5060a08201516005820180546001600160a01b0319166001600160a01b0390921691909117905560c0820151600682015560e0820151805161049d916007840191602090910190610d98565b5061010082015180516104ba916008840191602090910190610d98565b5061012082015180516104d7916009840191602090910190610d98565b5061014082015180516104f491600a840191602090910190610d98565b50610160820151805161051191600b840191602090910190610d98565b50610180820151805161052e91600c840191602090910190610d98565b506101a0820151805161054b91600d840191602090910190610d98565b506101c09190910151600e909101805460ff191691151591909117905560055460009061057a90600190611536565b60008481526006602090815260409182902083905584015190519192506105a0916112aa565b604051908190038120835190916105b791906112aa565b60405180910390207f6cf1b3ee9b366cf34f41d434689d9453ace1ab010fbe841c938d12d6d7c665988f8f8e8e8e8e8e8e8e8d6101c001516040516106059a99989796959493929190611460565b60405180910390a350505050505050505050505050565b600060028a60405160200161063191906112aa565b60408051601f198184030181529082905261064b916112aa565b602060405180830381855afa158015610668573d6000803e3d6000fd5b5050506040513d601f19601f8201168201806040525081019061068b9190610f15565b905061069681610a08565b156106a057600080fd5b6107076040518061018001604052806060815260200160608152602001606081526020016000801916815260200160608152602001606081526020016060815260200160608152602001606081526020016060815260200160608152602001606081525090565b606081018290528a815260208082018b9052604082018c9052608082018b905260a082018a905260c0820189905260e08201889052610100820187905261012082018690526101408201859052610160820184905260038054600181018255600091909152825180518493600c9093027fc2575a0e9e593c00f959f8c92f12db2869c3395a3b0502d05e2516446f71f85b01926107a8928492910190610d98565b5060208281015180516107c19260018501920190610d98565b50604082015180516107dd916002840191602090910190610d98565b506060820151600382015560808201518051610803916004840191602090910190610d98565b5060a0820151805161081f916005840191602090910190610d98565b5060c0820151805161083b916006840191602090910190610d98565b5060e08201518051610857916007840191602090910190610d98565b506101008201518051610874916008840191602090910190610d98565b506101208201518051610891916009840191602090910190610d98565b5061014082015180516108ae91600a840191602090910190610d98565b5061016082015180516108cb91600b840191602090910190610d98565b5050600354600091506108e090600190611536565b6000848152600460209081526040918290208390558401519051919250610906916112aa565b6040519081900381208351909161091d91906112aa565b60405180910390207f1c09db5462168b8fe4246eb51c1d03def28bdeec873f0ded0b018e31e2e444288e8e8e8e8e8e8e8e8e6040516109649998979695949392919061139b565b60405180910390a3505050505050505050505050565b600780546109879061158b565b80601f01602080910402602001604051908101604052809291908181526020018280546109b39061158b565b8015610a005780601f106109d557610100808354040283529160200191610a00565b820191906000526020600020905b8154815290600101906020018083116109e357829003601f168201915b505050505081565b600154600090610a1a57506000919050565b50600090815260026020526040902054151590565b600554600090610a4157506000919050565b50600090815260066020526040902054151590565b6000546001600160a01b03163314610a6d57600080fd5b565b60006002828486604051602001610a88939291906112c6565b60408051601f1981840301815290829052610aa2916112aa565b602060405180830381855afa158015610abf573d6000803e3d6000fd5b5050506040513d601f19601f82011682018060405250810190610ae29190610f15565b90506000600285604051602001610af991906112aa565b60408051601f1981840301815290829052610b13916112aa565b602060405180830381855afa158015610b30573d6000803e3d6000fd5b5050506040513d601f19601f82011682018060405250810190610b539190610f15565b9050610b5e81610a08565b15610b6857600080fd5b6040805160e081018252600060a082018190528782526020808301899052606083018790526001600160a01b0388166080840152928201859052600160c08301819052805480820182559152815180519293849360059093027fb10e2d527612073b26eecdfd717e6a320cf44b4afac2b0732d9fcbe2b7fa0cf60192610bf19284920190610d98565b506020828101518051610c0a9260018501920190610d98565b506040820151600282015560608201518051610c30916003840191602090910190610d98565b5060808201516004909101805460a084015160c0909401511515600160a81b0260ff60a81b19941515600160a01b026001600160a81b03199092166001600160a01b0390941693909317179290921617905560018054600091610c9291611536565b6000848152600260205260409081902082905583519051919250610cb5916112aa565b60405180910390207f460901c2e1d010e289193dbfeee389ea47c8947a6aa111430e7d22acc41c377b8360200151846060015185608001518660c00151604051610d029493929190611354565b60405180910390a250505050505050565b6000546001600160a01b03163314610d2a57600080fd5b6001600160a01b038116610d3d57600080fd5b600080546040516001600160a01b03808516939216917f8be0079c531659141344cd1fd0a4f28419497f9722a3daafe3b4186f6b6457e091a3600080546001600160a01b0319166001600160a01b0392909216919091179055565b828054610da49061158b565b90600052602060002090601f016020900481019282610dc65760008555610e0c565b82601f10610ddf57805160ff1916838001178555610e0c565b82800160010185558215610e0c579182015b82811115610e0c578251825591602001919060010190610df1565b50610e18929150610e1c565b5090565b5b80821115610e185760008155600101610e1d565b80356001600160a01b0381168114610e4857600080fd5b919050565b600082601f830112610e5e57600080fd5b813567ffffffffffffffff80821115610e7957610e796115c6565b604051601f8301601f19908116603f01168101908282118183101715610ea157610ea16115c6565b81604052838152866020858801011115610eba57600080fd5b836020870160208301376000602085830101528094505050505092915050565b600060208284031215610eec57600080fd5b610ef582610e31565b9392505050565b600060208284031215610f0e57600080fd5b5035919050565b600060208284031215610f2757600080fd5b5051919050565b600080600060608486031215610f4357600080fd5b833567ffffffffffffffff80821115610f5b57600080fd5b610f6787838801610e4d565b9450610f7560208701610e31565b93506040860135915080821115610f8b57600080fd5b50610f9886828701610e4d565b9150509250925092565b6000806000806000806000806000806101408b8d031215610fc257600080fd5b8a3567ffffffffffffffff80821115610fda57600080fd5b610fe68e838f01610e4d565b9b5060208d0135915080821115610ffc57600080fd5b6110088e838f01610e4d565b9a5061101660408e01610e31565b995060608d013591508082111561102c57600080fd5b6110388e838f01610e4d565b985060808d013591508082111561104e57600080fd5b61105a8e838f01610e4d565b975060a08d013591508082111561107057600080fd5b61107c8e838f01610e4d565b965060c08d013591508082111561109257600080fd5b61109e8e838f01610e4d565b955060e08d01359150808211156110b457600080fd5b6110c08e838f01610e4d565b94506101008d01359150808211156110d757600080fd5b6110e38e838f01610e4d565b93506101208d01359150808211156110fa57600080fd5b506111078d828e01610e4d565b9150509295989b9194979a5092959850565b60008060008060008060008060006101208a8c03121561113857600080fd5b893567ffffffffffffffff8082111561115057600080fd5b61115c8d838e01610e4d565b9a5060208c013591508082111561117257600080fd5b61117e8d838e01610e4d565b995060408c013591508082111561119457600080fd5b6111a08d838e01610e4d565b985060608c01359150808211156111b657600080fd5b6111c28d838e01610e4d565b975060808c01359150808211156111d857600080fd5b6111e48d838e01610e4d565b965060a08c01359150808211156111fa57600080fd5b6112068d838e01610e4d565b955060c08c013591508082111561121c57600080fd5b6112288d838e01610e4d565b945060e08c013591508082111561123e57600080fd5b61124a8d838e01610e4d565b93506101008c013591508082111561126157600080fd5b5061126e8c828d01610e4d565b9150509295985092959850929598565b6000815180845261129681602086016020860161155b565b601f01601f19169290920160200192915050565b600082516112bc81846020870161155b565b9190910192915050565b600084516112d881846020890161155b565b606085901b6bffffffffffffffffffffffff1916908301908152835161130581601484016020880161155b565b0160140195945050505050565b6000835161132481846020880161155b565b83519083019061133881836020880161155b565b01949350505050565b602081526000610ef5602083018461127e565b608081526000611367608083018761127e565b8281036020840152611379818761127e565b6001600160a01b03959095166040840152505090151560609091015292915050565b60006101208083526113af8184018d61127e565b905082810360208401526113c3818c61127e565b905082810360408401526113d7818b61127e565b905082810360608401526113eb818a61127e565b905082810360808401526113ff818961127e565b905082810360a0840152611413818861127e565b905082810360c0840152611427818761127e565b905082810360e084015261143b818661127e565b9050828103610100840152611450818561127e565b9c9b505050505050505050505050565b60006101408083526114748184018e61127e565b90508281036020840152611488818d61127e565b9050828103604084015261149c818c61127e565b905082810360608401526114b0818b61127e565b905082810360808401526114c4818a61127e565b905082810360a08401526114d8818961127e565b905082810360c08401526114ec818861127e565b905082810360e0840152611500818761127e565b9050828103610100840152611515818661127e565b91505061152761012083018415159052565b9b9a5050505050505050505050565b60008282101561155657634e487b7160e01b600052601160045260246000fd5b500390565b60005b8381101561157657818101518382015260200161155e565b83811115611585576000848401525b50505050565b600181811c9082168061159f57607f821691505b602082108114156115c057634e487b7160e01b600052602260045260246000fd5b50919050565b634e487b7160e01b600052604160045260246000fdfea2646970667358221220daef3ab6377d13d7bcc5c5f6c58b49e9864a58e940ab4837f1c06b0e2de771d664736f6c6343000806003355707065726261792053797374656d732043757272656e74466f72436172626f6e205631",
    "sourcePath": "f:/C2_BETA_V1/SmartContracts/EthOracle_V1/contracts/CurrentForCarbon.sol",
    "compiler": {
        "name": "solc",
        "version": "0.8.6+commit.11564f7e"
    },
    "functionHashes": {
        "AddGameEvent(string,string,string,string,string,string,string,string,string)": "6625f658",
        "AddGamePlayer(string,address,string)": "c7604ab6",
        "AddGameResult(string,string,address,string,string,string,string,string,string,string)": "58462511",
        "GameEventExists(bytes32)": "51df2a12",
        "GamePlayerExists(bytes32)": "7954fd32",
        "GameResultExists(bytes32)": "8a5ed70b",
        "HasResultReadyFlag()": "e0b5cca9",
        "_contractName()": "69ab83be",
        "addTestData()": "a212b454",
        "getAddress()": "38cc4831",
        "kill()": "41c0e1b5",
        "owner()": "8da5cb5b",
        "testConnection()": "3412a15c",
        "transferOwnership(address)": "f2fde38b"
    },
    "gasEstimates": {
        "creation": {
            "codeDepositCost": "1130000",
            "executionCost": "infinite",
            "totalCost": "infinite"
        },
        "external": {
            "AddGameEvent(string,string,string,string,string,string,string,string,string)": "infinite",
            "AddGamePlayer(string,address,string)": "infinite",
            "AddGameResult(string,string,address,string,string,string,string,string,string,string)": "infinite",
            "GameEventExists(bytes32)": "4599",
            "GamePlayerExists(bytes32)": "4599",
            "GameResultExists(bytes32)": "4621",
            "HasResultReadyFlag()": "2365",
            "_contractName()": "infinite",
            "addTestData()": "2306",
            "getAddress()": "247",
            "kill()": "29945",
            "owner()": "2404",
            "testConnection()": "200",
            "transferOwnership(address)": "30488"
        },
        "internal": {
            "Bytes32ToString(bytes32)": "infinite"
        }
    }
}