{
    "contractName": "CurrentForCarbon",
    "abi": [
        {
            "inputs": [],
            "stateMutability": "nonpayable",
            "type": "constructor"
        },
        {
            "anonymous": false,
            "inputs": [
                {
                    "indexed": true,
                    "internalType": "string",
                    "name": "slice",
                    "type": "string"
                },
                {
                    "indexed": true,
                    "internalType": "string",
                    "name": "gamePlayerID",
                    "type": "string"
                },
                {
                    "indexed": true,
                    "internalType": "string",
                    "name": "gameEventID",
                    "type": "string"
                },
                {
                    "indexed": false,
                    "internalType": "string",
                    "name": "gameEventStartTime",
                    "type": "string"
                },
                {
                    "indexed": false,
                    "internalType": "string",
                    "name": "gameEventDuration",
                    "type": "string"
                },
                {
                    "indexed": false,
                    "internalType": "string",
                    "name": "pointsPerWatt",
                    "type": "string"
                },
                {
                    "indexed": false,
                    "internalType": "string",
                    "name": "averagePowerInWatts",
                    "type": "string"
                },
                {
                    "indexed": false,
                    "internalType": "string",
                    "name": "baselineAveragePowerInWatts",
                    "type": "string"
                },
                {
                    "indexed": false,
                    "internalType": "string",
                    "name": "deltaAveragePowerInWatts",
                    "type": "string"
                },
                {
                    "indexed": false,
                    "internalType": "string",
                    "name": "wattPoints",
                    "type": "string"
                },
                {
                    "indexed": false,
                    "internalType": "string",
                    "name": "totalPointsAwarded",
                    "type": "string"
                },
                {
                    "indexed": false,
                    "internalType": "string",
                    "name": "awardValue",
                    "type": "string"
                }
            ],
            "name": "GameCombinedEventResultEvent",
            "type": "event"
        },
        {
            "anonymous": false,
            "inputs": [
                {
                    "indexed": true,
                    "internalType": "string",
                    "name": "slice",
                    "type": "string"
                },
                {
                    "indexed": true,
                    "internalType": "string",
                    "name": "gameEventID",
                    "type": "string"
                },
                {
                    "indexed": true,
                    "internalType": "string",
                    "name": "gameEventName",
                    "type": "string"
                },
                {
                    "indexed": false,
                    "internalType": "string",
                    "name": "gameEventType",
                    "type": "string"
                },
                {
                    "indexed": false,
                    "internalType": "string",
                    "name": "gameEventStartTime",
                    "type": "string"
                },
                {
                    "indexed": false,
                    "internalType": "string",
                    "name": "gameEventEndTime",
                    "type": "string"
                },
                {
                    "indexed": false,
                    "internalType": "string",
                    "name": "gameEventDuration",
                    "type": "string"
                },
                {
                    "indexed": false,
                    "internalType": "string",
                    "name": "dollarPerPoint",
                    "type": "string"
                },
                {
                    "indexed": false,
                    "internalType": "string",
                    "name": "pointsPerWatt",
                    "type": "string"
                },
                {
                    "indexed": false,
                    "internalType": "string",
                    "name": "pointsPerPercent",
                    "type": "string"
                }
            ],
            "name": "GameEventEvent",
            "type": "event"
        },
        {
            "anonymous": false,
            "inputs": [
                {
                    "indexed": true,
                    "internalType": "string",
                    "name": "slice",
                    "type": "string"
                },
                {
                    "indexed": true,
                    "internalType": "string",
                    "name": "gamePlayerID",
                    "type": "string"
                },
                {
                    "indexed": true,
                    "internalType": "string",
                    "name": "dataConnectionString",
                    "type": "string"
                },
                {
                    "indexed": false,
                    "internalType": "address",
                    "name": "gamePlayerAddress",
                    "type": "address"
                },
                {
                    "indexed": false,
                    "internalType": "string",
                    "name": "status",
                    "type": "string"
                }
            ],
            "name": "GamePlayerEvent",
            "type": "event"
        },
        {
            "anonymous": false,
            "inputs": [
                {
                    "indexed": true,
                    "internalType": "string",
                    "name": "slice",
                    "type": "string"
                },
                {
                    "indexed": true,
                    "internalType": "string",
                    "name": "gamePlayerID",
                    "type": "string"
                },
                {
                    "indexed": true,
                    "internalType": "string",
                    "name": "gameEventID",
                    "type": "string"
                },
                {
                    "indexed": false,
                    "internalType": "string",
                    "name": "gameResultID",
                    "type": "string"
                },
                {
                    "indexed": false,
                    "internalType": "string",
                    "name": "averagePowerInWatts",
                    "type": "string"
                },
                {
                    "indexed": false,
                    "internalType": "string",
                    "name": "baselineAveragePowerInWatts",
                    "type": "string"
                },
                {
                    "indexed": false,
                    "internalType": "string",
                    "name": "deltaAveragePowerInWatts",
                    "type": "string"
                },
                {
                    "indexed": false,
                    "internalType": "string",
                    "name": "percentPoints",
                    "type": "string"
                },
                {
                    "indexed": false,
                    "internalType": "string",
                    "name": "wattPoints",
                    "type": "string"
                },
                {
                    "indexed": false,
                    "internalType": "string",
                    "name": "totalPointsAwarded",
                    "type": "string"
                },
                {
                    "indexed": false,
                    "internalType": "string",
                    "name": "awardValue",
                    "type": "string"
                },
                {
                    "indexed": false,
                    "internalType": "string",
                    "name": "status",
                    "type": "string"
                }
            ],
            "name": "GameResultEvent",
            "type": "event"
        },
        {
            "anonymous": false,
            "inputs": [
                {
                    "indexed": true,
                    "internalType": "address",
                    "name": "previousOwner",
                    "type": "address"
                },
                {
                    "indexed": true,
                    "internalType": "address",
                    "name": "newOwner",
                    "type": "address"
                }
            ],
            "name": "OwnershipTransferred",
            "type": "event"
        },
        {
            "inputs": [
                {
                    "internalType": "string",
                    "name": "gameEventID",
                    "type": "string"
                },
                {
                    "internalType": "string",
                    "name": "gameEventName",
                    "type": "string"
                },
                {
                    "internalType": "string",
                    "name": "gameEventType",
                    "type": "string"
                },
                {
                    "internalType": "string",
                    "name": "gameEventStartTime",
                    "type": "string"
                },
                {
                    "internalType": "string",
                    "name": "gameEventEndTime",
                    "type": "string"
                },
                {
                    "internalType": "string",
                    "name": "gameEventDuration",
                    "type": "string"
                },
                {
                    "internalType": "string",
                    "name": "dollarPerPoint",
                    "type": "string"
                },
                {
                    "internalType": "string",
                    "name": "pointsPerWatt",
                    "type": "string"
                },
                {
                    "internalType": "string",
                    "name": "pointsPerPercent",
                    "type": "string"
                }
            ],
            "name": "AddGameEvent",
            "outputs": [],
            "stateMutability": "nonpayable",
            "type": "function"
        },
        {
            "inputs": [
                {
                    "internalType": "string",
                    "name": "gamePlayerID",
                    "type": "string"
                },
                {
                    "internalType": "address",
                    "name": "playerAddress",
                    "type": "address"
                },
                {
                    "internalType": "string",
                    "name": "dataConnectionString",
                    "type": "string"
                }
            ],
            "name": "AddGamePlayer",
            "outputs": [],
            "stateMutability": "nonpayable",
            "type": "function"
        },
        {
            "inputs": [
                {
                    "internalType": "string",
                    "name": "gamePlayerID",
                    "type": "string"
                },
                {
                    "internalType": "string",
                    "name": "gameEventID",
                    "type": "string"
                },
                {
                    "internalType": "address",
                    "name": "gamePlayerAddress",
                    "type": "address"
                },
                {
                    "internalType": "string",
                    "name": "averagePowerInWatts",
                    "type": "string"
                },
                {
                    "internalType": "string",
                    "name": "baselineAveragePowerInWatts",
                    "type": "string"
                },
                {
                    "internalType": "string",
                    "name": "deltaAveragePowerInWatts",
                    "type": "string"
                },
                {
                    "internalType": "string",
                    "name": "percentPoints",
                    "type": "string"
                },
                {
                    "internalType": "string",
                    "name": "wattPoints",
                    "type": "string"
                },
                {
                    "internalType": "string",
                    "name": "totalPointsAwarded",
                    "type": "string"
                },
                {
                    "internalType": "string",
                    "name": "awardValue",
                    "type": "string"
                }
            ],
            "name": "AddGameResult",
            "outputs": [],
            "stateMutability": "nonpayable",
            "type": "function"
        },
        {
            "inputs": [],
            "name": "EventCount",
            "outputs": [
                {
                    "internalType": "uint256",
                    "name": "",
                    "type": "uint256"
                }
            ],
            "stateMutability": "view",
            "type": "function"
        },
        {
            "inputs": [
                {
                    "internalType": "bytes32",
                    "name": "_gameEventIDHash",
                    "type": "bytes32"
                }
            ],
            "name": "GameEventExists",
            "outputs": [
                {
                    "internalType": "bool",
                    "name": "",
                    "type": "bool"
                }
            ],
            "stateMutability": "view",
            "type": "function"
        },
        {
            "inputs": [
                {
                    "internalType": "bytes32",
                    "name": "_gamePlayerIDHash",
                    "type": "bytes32"
                }
            ],
            "name": "GamePlayerExists",
            "outputs": [
                {
                    "internalType": "bool",
                    "name": "",
                    "type": "bool"
                }
            ],
            "stateMutability": "view",
            "type": "function"
        },
        {
            "inputs": [
                {
                    "internalType": "bytes32",
                    "name": "_gameResultIDHash",
                    "type": "bytes32"
                }
            ],
            "name": "GameResultExists",
            "outputs": [
                {
                    "internalType": "bool",
                    "name": "",
                    "type": "bool"
                }
            ],
            "stateMutability": "view",
            "type": "function"
        },
        {
            "inputs": [],
            "name": "HasResultReadyFlag",
            "outputs": [
                {
                    "internalType": "bool",
                    "name": "",
                    "type": "bool"
                }
            ],
            "stateMutability": "view",
            "type": "function"
        },
        {
            "inputs": [],
            "name": "PlayerCount",
            "outputs": [
                {
                    "internalType": "uint256",
                    "name": "",
                    "type": "uint256"
                }
            ],
            "stateMutability": "view",
            "type": "function"
        },
        {
            "inputs": [],
            "name": "ResultCount",
            "outputs": [
                {
                    "internalType": "uint256",
                    "name": "",
                    "type": "uint256"
                }
            ],
            "stateMutability": "view",
            "type": "function"
        },
        {
            "inputs": [
                {
                    "internalType": "string",
                    "name": "source",
                    "type": "string"
                }
            ],
            "name": "StringToBytes32",
            "outputs": [
                {
                    "internalType": "bytes32",
                    "name": "result",
                    "type": "bytes32"
                }
            ],
            "stateMutability": "pure",
            "type": "function"
        },
        {
            "inputs": [
                {
                    "internalType": "string",
                    "name": "playerID",
                    "type": "string"
                },
                {
                    "internalType": "string",
                    "name": "status",
                    "type": "string"
                }
            ],
            "name": "UpdatePlayerStatus",
            "outputs": [],
            "stateMutability": "nonpayable",
            "type": "function"
        },
        {
            "inputs": [
                {
                    "internalType": "string",
                    "name": "resultID",
                    "type": "string"
                },
                {
                    "internalType": "string",
                    "name": "status",
                    "type": "string"
                }
            ],
            "name": "UpdateResultsStatus",
            "outputs": [],
            "stateMutability": "nonpayable",
            "type": "function"
        },
        {
            "inputs": [],
            "name": "_contractName",
            "outputs": [
                {
                    "internalType": "string",
                    "name": "",
                    "type": "string"
                }
            ],
            "stateMutability": "view",
            "type": "function"
        },
        {
            "inputs": [],
            "name": "addTestData",
            "outputs": [],
            "stateMutability": "nonpayable",
            "type": "function"
        },
        {
            "inputs": [],
            "name": "getAddress",
            "outputs": [
                {
                    "internalType": "address",
                    "name": "",
                    "type": "address"
                }
            ],
            "stateMutability": "view",
            "type": "function"
        },
        {
            "inputs": [],
            "name": "kill",
            "outputs": [],
            "stateMutability": "nonpayable",
            "type": "function"
        },
        {
            "inputs": [],
            "name": "owner",
            "outputs": [
                {
                    "internalType": "address",
                    "name": "",
                    "type": "address"
                }
            ],
            "stateMutability": "view",
            "type": "function"
        },
        {
            "inputs": [],
            "name": "testConnection",
            "outputs": [
                {
                    "internalType": "bool",
                    "name": "",
                    "type": "bool"
                }
            ],
            "stateMutability": "pure",
            "type": "function"
        },
        {
            "inputs": [
                {
                    "internalType": "address",
                    "name": "newOwner",
                    "type": "address"
                }
            ],
            "name": "transferOwnership",
            "outputs": [],
            "stateMutability": "nonpayable",
            "type": "function"
        }
    ],
    "bytecode": "608060405261270f6010556012805460ff191690556000601381905560148190556015553480156200003057600080fd5b50600080546001600160a01b0319163317905560408051606081019091526024808252620021f360208301398051620000729160119160209091019062000118565b5060006007819055600855604080518082019091526001808252600360fc1b6020909201918252620000a79160099162000118565b506000600a819055600b55604080518082019091526001808252600360fc1b6020909201918252620000dc91600c9162000118565b506000600d819055600e55604080518082019091526001808252600360fc1b60209092019182526200011191600f9162000118565b50620001fb565b8280546200012690620001be565b90600052602060002090601f0160209004810192826200014a576000855562000195565b82601f106200016557805160ff191683800117855562000195565b8280016001018555821562000195579182015b828111156200019557825182559160200191906001019062000178565b50620001a3929150620001a7565b5090565b5b80821115620001a35760008155600101620001a8565b600181811c90821680620001d357607f821691505b60208210811415620001f557634e487b7160e01b600052602260045260246000fd5b50919050565b611fe8806200020b6000396000f3fe608060405234801561001057600080fd5b506004361061012c5760003560e01c806369ab83be116100ad578063a212b45411610071578063a212b4541461023a578063c7604ab614610242578063e0b5cca914610255578063f2fde38b14610262578063fe4766cd1461027557600080fd5b806369ab83be146101ec5780636bd13d43146101845780637954fd32146102015780638a5ed70b146102145780638da5cb5b1461022757600080fd5b806351df2a12116100f457806351df2a121461019757806358462511146101aa5780635ffb2fa9146101bd578063604ede35146101c65780636625f658146101d957600080fd5b806315ccdffa146101315780633412a15c1461014d57806338cc48311461016057806341c0e1b51461017a57806343a2207914610184575b600080fd5b61013a60135481565b6040519081526020015b60405180910390f35b60015b6040519015158152602001610144565b305b6040516001600160a01b039091168152602001610144565b61018261027e565b005b61018261019236600461158f565b610298565b6101506101a53660046115f3565b6102b3565b6101826101b8366004611628565b6102da565b61013a60145481565b61013a6101d436600461179f565b6108ed565b6101826101e73660046117dc565b61090a565b6101f4610c69565b604051610144919061199d565b61015061020f3660046115f3565b610cf7565b6101506102223660046115f3565b610d1e565b600054610162906001600160a01b031681565b610182610d45565b6101826102503660046119b7565b610d5e565b6012546101509060ff1681565b610182610270366004611a2b565b6110aa565b61013a60155481565b6000546001600160a01b0316331461029557600080fd5b33ff5b6000546001600160a01b031633146102af57600080fd5b5050565b6003546000906102c557506000919050565b50600090815260046020526040902054151590565b6102e26113a0565b60028b8b6040516020016102f7929190611a46565b60408051601f198184030181529082905261031191611a75565b602060405180830381855afa15801561032e573d6000803e3d6000fd5b5050506040513d601f19601f820116820180604052508101906103519190611a91565b81602001818152505060028a60405160200161036d9190611a75565b60408051601f198184030181529082905261038791611a75565b602060405180830381855afa1580156103a4573d6000803e3d6000fd5b5050506040513d601f19601f820116820180604052508101906103c79190611a91565b815260208101516103d790610d1e565b156103e157600080fd5b602081018051608083015152516103f79061112f565b60808281018051602090810193909352805160409081018f905281516060018e905281516001600160a01b038e16930192909252805160c0018b9052805160e0018a90528051610100018990528051610120018890528051610140018790528051610160018690528051610180018590528151808301909252600b82526a1d5b98dbdb999a5c9b595960aa1b8284015280516101a00191909152516005805460018101825560009190915281517f036b6384b5eca791c62761152d0c79bb0604c104a5fb6f4eb0703f3154bb3db0600e9092029182019081558284015180519394919361050b937f036b6384b5eca791c62761152d0c79bb0604c104a5fb6f4eb0703f3154bb3db101929190910190611453565b5060408201518051610527916002840191602090910190611453565b5060608201518051610543916003840191602090910190611453565b5060808201516004820180546001600160a01b0319166001600160a01b0390921691909117905560a0820151600582015560c0820151805161058f916006840191602090910190611453565b5060e082015180516105ab916007840191602090910190611453565b5061010082015180516105c8916008840191602090910190611453565b5061012082015180516105e5916009840191602090910190611453565b50610140820151805161060291600a840191602090910190611453565b50610160820151805161061f91600b840191602090910190611453565b50610180820151805161063c91600c840191602090910190611453565b506101a0820151805161065991600d840191602090910190611453565b505060055461066b9150600190611ac0565b606082018190526020808301516000908152600682526040808220939093558351815260049091528181205491830191909152600e8054916106ac83611ad7565b9091555050601054600e546106c19190611b08565b600d8190556106cf90611295565b80516106e391600f91602090910190611453565b50600e546015556080810151606001516040516107009190611a75565b604051809103902081608001516040015160405161071e9190611a75565b6040519081900381209061073490600f90611b57565b6040519081900381206080850151602081015160c082015160e08301516101008401516101208501516101408601516101608701516101808801516101a09098015198997f22b30d9636cf032bda8aa8a9435885d9d13f5469015b2591377c073059caa615996107a49991611bc9565b60405180910390a48060800151606001516040516107c29190611a75565b60405180910390208160800151604001516040516107e09190611a75565b604051908190038120906107f690600f90611b57565b60405180910390207f77e0caa7c6d55983f85d91950656615b7e2c6c567222d2dd194fbf999a8ebfea600385604001518154811061083657610836611c8e565b90600052602060002090600a0201600401600386604001518154811061085e5761085e611c8e565b90600052602060002090600a0201600601600387604001518154811061088657610886611c8e565b60009182526020909120608089015160c081015160e0820151610100830151610140840151610160850151610180909501516040516108d89a9998600a02909701600801969495939492939192611d1b565b60405180910390a45050505050505050505050565b805160009082906109015750600092915050565b50506020015190565b600060028a60405160200161091f9190611a75565b60408051601f198184030181529082905261093991611a75565b602060405180830381855afa158015610956573d6000803e3d6000fd5b5050506040513d601f19601f820116820180604052508101906109799190611a91565b905061098481610cf7565b1561098e57600080fd5b6109e7604051806101400160405280606081526020016000801916815260200160608152602001606081526020016060815260200160608152602001606081526020016060815260200160608152602001606081525090565b60208082018390528b8252604082018b9052606082018a90526080820189905260a0820188905260c0820187905260e082018690526101008201859052610120820184905260038054600181018255600091909152825180518493600a9093027fc2575a0e9e593c00f959f8c92f12db2869c3395a3b0502d05e2516446f71f85b0192610a78928492910190611453565b50602082810151600183015560408301518051610a9b9260028501920190611453565b5060608201518051610ab7916003840191602090910190611453565b5060808201518051610ad3916004840191602090910190611453565b5060a08201518051610aef916005840191602090910190611453565b5060c08201518051610b0b916006840191602090910190611453565b5060e08201518051610b27916007840191602090910190611453565b506101008201518051610b44916008840191602090910190611453565b506101208201518051610b61916009840191602090910190611453565b505060035460009150610b7690600190611ac0565b6000848152600460205260408120829055600b805492935090610b9883611ad7565b9091555050601054600b54610bad9190611b08565b600a819055610bbb90611295565b8051610bcf91600c91602090910190611453565b50600b54601455604051610be4908c90611a75565b60405180910390208c604051610bfa9190611a75565b60405190819003812090610c1090600c90611b57565b60405180910390207f7c6ff5126763767f5a3a8f07d00852693052ee1fa55f2170bba0b9dc31a38d368d8d8d8d8d8d8d604051610c539796959493929190611d57565b60405180910390a4505050505050505050505050565b60118054610c7690611b1c565b80601f0160208091040260200160405190810160405280929190818152602001828054610ca290611b1c565b8015610cef5780601f10610cc457610100808354040283529160200191610cef565b820191906000526020600020905b815481529060010190602001808311610cd257829003601f168201915b505050505081565b600154600090610d0957506000919050565b50600090815260026020526040902054151590565b600554600090610d3057506000919050565b50600090815260066020526040902054151590565b6000546001600160a01b03163314610d5c57600080fd5b565b60006002828486604051602001610d7793929190611dee565b60408051601f1981840301815290829052610d9191611a75565b602060405180830381855afa158015610dae573d6000803e3d6000fd5b5050506040513d601f19601f82011682018060405250810190610dd19190611a91565b90506000600285604051602001610de89190611a75565b60408051601f1981840301815290829052610e0291611a75565b602060405180830381855afa158015610e1f573d6000803e3d6000fd5b5050506040513d601f19601f82011682018060405250810190610e429190611a91565b9050610e4d81610cf7565b15610e5757600080fd5b610e9e6040518060c0016040528060608152602001600080191681526020016060815260200160006001600160a01b03168152602001600015158152602001606081525090565b85815260408082018590526001600160a01b038616606083015260208083018590528151808301909252600682526561637469766560d01b8282015260a083019190915260018054808201825560009190915282518051849360059093027fb10e2d527612073b26eecdfd717e6a320cf44b4afac2b0732d9fcbe2b7fa0cf60192610f2d928492910190611453565b50602082810151600183015560408301518051610f509260028501920190611453565b50606082015160038201805460808501511515600160a01b026001600160a81b03199091166001600160a01b039093169290921791909117905560a08201518051610fa5916004840191602090910190611453565b50506001805460009250610fb99190611ac0565b60008481526002602052604081208290556008805492935090610fdb83611ad7565b9091555050601054600854610ff09190611b08565b6007819055610ffe90611295565b805161101291600991602090910190611453565b50600854601355604080830151905161102b9190611a75565b604051908190038120835190916110429190611a75565b6040519081900381209061105890600990611b57565b60405180910390207f4ce86452826dc970af747247866ded976d52c1b7c86a845c3c5e9475bfdc942485606001518660a00151604051611099929190611e3a565b60405180910390a450505050505050565b6000546001600160a01b031633146110c157600080fd5b6001600160a01b0381166110d457600080fd5b600080546040516001600160a01b03808516939216917f8be0079c531659141344cd1fd0a4f28419497f9722a3daafe3b4186f6b6457e091a3600080546001600160a01b0319166001600160a01b0392909216919091179055565b604080516020808252818301909252606091600091906020820181803683370190505090506000805b60208110156111e057600061116e826008611e5e565b611179906002611f63565b6111839087611e5e565b90506001600160f81b03198116156111cd57808484815181106111a8576111a8611c8e565b60200101906001600160f81b031916908160001a905350826111c981611ad7565b9350505b50806111d881611ad7565b915050611158565b5060008167ffffffffffffffff8111156111fc576111fc6114ec565b6040519080825280601f01601f191660200182016040528015611226576020820181803683370190505b50905060005b8281101561128c5783818151811061124657611246611c8e565b602001015160f81c60f81b82828151811061126357611263611c8e565b60200101906001600160f81b031916908160001a9053508061128481611ad7565b91505061122c565b50949350505050565b6060816112b95750506040805180820190915260018152600360fc1b602082015290565b8160005b81156112e357806112cd81611ad7565b91506112dc9050600a83611b08565b91506112bd565b60008167ffffffffffffffff8111156112fe576112fe6114ec565b6040519080825280601f01601f191660200182016040528015611328576020820181803683370190505b5090506000611338600184611ac0565b90505b851561128c5761134c600a87611f6f565b611357906030611f83565b60f81b828261136581611f9b565b93508151811061137757611377611c8e565b60200101906001600160f81b031916908160001a905350611399600a87611b08565b955061133b565b6040518060a001604052806000801916815260200160008019168152602001600081526020016000815260200161144e604051806101c001604052806000801916815260200160608152602001606081526020016060815260200160006001600160a01b031681526020016000801916815260200160608152602001606081526020016060815260200160608152602001606081526020016060815260200160608152602001606081525090565b905290565b82805461145f90611b1c565b90600052602060002090601f01602090048101928261148157600085556114c7565b82601f1061149a57805160ff19168380011785556114c7565b828001600101855582156114c7579182015b828111156114c75782518255916020019190600101906114ac565b506114d39291506114d7565b5090565b5b808211156114d357600081556001016114d8565b634e487b7160e01b600052604160045260246000fd5b600082601f83011261151357600080fd5b813567ffffffffffffffff8082111561152e5761152e6114ec565b604051601f8301601f19908116603f01168101908282118183101715611556576115566114ec565b8160405283815286602085880101111561156f57600080fd5b836020870160208301376000602085830101528094505050505092915050565b600080604083850312156115a257600080fd5b823567ffffffffffffffff808211156115ba57600080fd5b6115c686838701611502565b935060208501359150808211156115dc57600080fd5b506115e985828601611502565b9150509250929050565b60006020828403121561160557600080fd5b5035919050565b80356001600160a01b038116811461162357600080fd5b919050565b6000806000806000806000806000806101408b8d03121561164857600080fd5b8a3567ffffffffffffffff8082111561166057600080fd5b61166c8e838f01611502565b9b5060208d013591508082111561168257600080fd5b61168e8e838f01611502565b9a5061169c60408e0161160c565b995060608d01359150808211156116b257600080fd5b6116be8e838f01611502565b985060808d01359150808211156116d457600080fd5b6116e08e838f01611502565b975060a08d01359150808211156116f657600080fd5b6117028e838f01611502565b965060c08d013591508082111561171857600080fd5b6117248e838f01611502565b955060e08d013591508082111561173a57600080fd5b6117468e838f01611502565b94506101008d013591508082111561175d57600080fd5b6117698e838f01611502565b93506101208d013591508082111561178057600080fd5b5061178d8d828e01611502565b9150509295989b9194979a5092959850565b6000602082840312156117b157600080fd5b813567ffffffffffffffff8111156117c857600080fd5b6117d484828501611502565b949350505050565b60008060008060008060008060006101208a8c0312156117fb57600080fd5b893567ffffffffffffffff8082111561181357600080fd5b61181f8d838e01611502565b9a5060208c013591508082111561183557600080fd5b6118418d838e01611502565b995060408c013591508082111561185757600080fd5b6118638d838e01611502565b985060608c013591508082111561187957600080fd5b6118858d838e01611502565b975060808c013591508082111561189b57600080fd5b6118a78d838e01611502565b965060a08c01359150808211156118bd57600080fd5b6118c98d838e01611502565b955060c08c01359150808211156118df57600080fd5b6118eb8d838e01611502565b945060e08c013591508082111561190157600080fd5b61190d8d838e01611502565b93506101008c013591508082111561192457600080fd5b506119318c828d01611502565b9150509295985092959850929598565b60005b8381101561195c578181015183820152602001611944565b8381111561196b576000848401525b50505050565b60008151808452611989816020860160208601611941565b601f01601f19169290920160200192915050565b6020815260006119b06020830184611971565b9392505050565b6000806000606084860312156119cc57600080fd5b833567ffffffffffffffff808211156119e457600080fd5b6119f087838801611502565b94506119fe6020870161160c565b93506040860135915080821115611a1457600080fd5b50611a2186828701611502565b9150509250925092565b600060208284031215611a3d57600080fd5b6119b08261160c565b60008351611a58818460208801611941565b835190830190611a6c818360208801611941565b01949350505050565b60008251611a87818460208701611941565b9190910192915050565b600060208284031215611aa357600080fd5b5051919050565b634e487b7160e01b600052601160045260246000fd5b600082821015611ad257611ad2611aaa565b500390565b6000600019821415611aeb57611aeb611aaa565b5060010190565b634e487b7160e01b600052601260045260246000fd5b600082611b1757611b17611af2565b500490565b600181811c90821680611b3057607f821691505b60208210811415611b5157634e487b7160e01b600052602260045260246000fd5b50919050565b6000808354611b6581611b1c565b60018281168015611b7d5760018114611b8e57611bbd565b60ff19841687528287019450611bbd565b8760005260208060002060005b85811015611bb45781548a820152908401908201611b9b565b50505082870194505b50929695505050505050565b6000610120808352611bdd8184018d611971565b90508281036020840152611bf1818c611971565b90508281036040840152611c05818b611971565b90508281036060840152611c19818a611971565b90508281036080840152611c2d8189611971565b905082810360a0840152611c418188611971565b905082810360c0840152611c558187611971565b905082810360e0840152611c698186611971565b9050828103610100840152611c7e8185611971565b9c9b505050505050505050505050565b634e487b7160e01b600052603260045260246000fd5b60008154611cb181611b1c565b808552602060018381168015611cce5760018114611ce257611d10565b60ff19851688840152604088019550611d10565b866000528260002060005b85811015611d085781548a8201860152908301908401611ced565b890184019650505b505050505092915050565b6000610120808352611d2f8184018d611ca4565b90508281036020840152611d43818c611ca4565b90508281036040840152611c05818b611ca4565b60e081526000611d6a60e083018a611971565b8281036020840152611d7c818a611971565b90508281036040840152611d908189611971565b90508281036060840152611da48188611971565b90508281036080840152611db88187611971565b905082810360a0840152611dcc8186611971565b905082810360c0840152611de08185611971565b9a9950505050505050505050565b60008451611e00818460208901611941565b606085901b6bffffffffffffffffffffffff19169083019081528351611e2d816014840160208801611941565b0160140195945050505050565b6001600160a01b03831681526040602082018190526000906117d490830184611971565b6000816000190483118215151615611e7857611e78611aaa565b500290565b600181815b80851115611eb8578160001904821115611e9e57611e9e611aaa565b80851615611eab57918102915b93841c9390800290611e82565b509250929050565b600082611ecf57506001611f5d565b81611edc57506000611f5d565b8160018114611ef25760028114611efc57611f18565b6001915050611f5d565b60ff841115611f0d57611f0d611aaa565b50506001821b611f5d565b5060208310610133831016604e8410600b8410161715611f3b575081810a611f5d565b611f458383611e7d565b8060001904821115611f5957611f59611aaa565b0290505b92915050565b60006119b08383611ec0565b600082611f7e57611f7e611af2565b500690565b60008219821115611f9657611f96611aaa565b500190565b600081611faa57611faa611aaa565b50600019019056fea2646970667358221220b2105780d67bb14954df43f4344aa5e4f58bcc882180658fe945cdae58a5a4d664736f6c6343000809003355707065726261792053797374656d732043757272656e74466f72436172626f6e205631",
    "sourcePath": "c:/C2_BETA1/SmartContracts/EthOracle/contracts/CurrentForCarbon.sol",
    "compiler": {
        "name": "solc",
        "version": "0.8.9+commit.e5eed63a"
    },
    "functionHashes": {
        "AddGameEvent(string,string,string,string,string,string,string,string,string)": "6625f658",
        "AddGamePlayer(string,address,string)": "c7604ab6",
        "AddGameResult(string,string,address,string,string,string,string,string,string,string)": "58462511",
        "EventCount()": "5ffb2fa9",
        "GameEventExists(bytes32)": "51df2a12",
        "GamePlayerExists(bytes32)": "7954fd32",
        "GameResultExists(bytes32)": "8a5ed70b",
        "HasResultReadyFlag()": "e0b5cca9",
        "PlayerCount()": "15ccdffa",
        "ResultCount()": "fe4766cd",
        "StringToBytes32(string)": "604ede35",
        "UpdatePlayerStatus(string,string)": "6bd13d43",
        "UpdateResultsStatus(string,string)": "43a22079",
        "_contractName()": "69ab83be",
        "addTestData()": "a212b454",
        "getAddress()": "38cc4831",
        "kill()": "41c0e1b5",
        "owner()": "8da5cb5b",
        "testConnection()": "3412a15c",
        "transferOwnership(address)": "f2fde38b"
    },
    "gasEstimates": {
        "creation": {
            "codeDepositCost": "1633600",
            "executionCost": "infinite",
            "totalCost": "infinite"
        },
        "external": {
            "AddGameEvent(string,string,string,string,string,string,string,string,string)": "infinite",
            "AddGamePlayer(string,address,string)": "infinite",
            "AddGameResult(string,string,address,string,string,string,string,string,string,string)": "infinite",
            "EventCount()": "2351",
            "GameEventExists(bytes32)": "4610",
            "GamePlayerExists(bytes32)": "4654",
            "GameResultExists(bytes32)": "4676",
            "HasResultReadyFlag()": "2376",
            "PlayerCount()": "2308",
            "ResultCount()": "2394",
            "StringToBytes32(string)": "infinite",
            "UpdatePlayerStatus(string,string)": "infinite",
            "UpdateResultsStatus(string,string)": "infinite",
            "_contractName()": "infinite",
            "addTestData()": "2306",
            "getAddress()": "269",
            "kill()": "29967",
            "owner()": "2448",
            "testConnection()": "233",
            "transferOwnership(address)": "30488"
        },
        "internal": {
            "Bytes32ToString(bytes32)": "infinite",
            "UintToString(uint256)": "infinite"
        }
    }
}