{
    "contractName": "DataPumpOracle",
    "abi": [
        {
            "inputs": [],
            "stateMutability": "nonpayable",
            "type": "constructor"
        },
        {
            "anonymous": false,
            "inputs": [
                {
                    "indexed": true,
                    "internalType": "string",
                    "name": "oracleNameIdx",
                    "type": "string"
                },
                {
                    "indexed": false,
                    "internalType": "string",
                    "name": "oracleName",
                    "type": "string"
                },
                {
                    "indexed": false,
                    "internalType": "uint256",
                    "name": "seqNumber",
                    "type": "uint256"
                },
                {
                    "indexed": false,
                    "internalType": "address",
                    "name": "oracleAddress",
                    "type": "address"
                },
                {
                    "indexed": false,
                    "internalType": "string",
                    "name": "time",
                    "type": "string"
                }
            ],
            "name": "OracleDockEvent",
            "type": "event"
        },
        {
            "anonymous": false,
            "inputs": [
                {
                    "indexed": true,
                    "internalType": "string",
                    "name": "oracleNameIdx",
                    "type": "string"
                },
                {
                    "indexed": false,
                    "internalType": "string",
                    "name": "oracleName",
                    "type": "string"
                },
                {
                    "indexed": false,
                    "internalType": "uint256",
                    "name": "seqNumber",
                    "type": "uint256"
                },
                {
                    "indexed": false,
                    "internalType": "address",
                    "name": "oracleAddress",
                    "type": "address"
                },
                {
                    "indexed": false,
                    "internalType": "string",
                    "name": "time",
                    "type": "string"
                }
            ],
            "name": "OracleGetDataEvent",
            "type": "event"
        },
        {
            "anonymous": false,
            "inputs": [
                {
                    "indexed": true,
                    "internalType": "string",
                    "name": "oracleNameIdx",
                    "type": "string"
                },
                {
                    "indexed": false,
                    "internalType": "string",
                    "name": "oracleName",
                    "type": "string"
                },
                {
                    "indexed": false,
                    "internalType": "uint256",
                    "name": "seqNumber",
                    "type": "uint256"
                },
                {
                    "indexed": false,
                    "internalType": "address",
                    "name": "oracleAddress",
                    "type": "address"
                },
                {
                    "indexed": false,
                    "internalType": "string",
                    "name": "time",
                    "type": "string"
                }
            ],
            "name": "OraclePingEvent",
            "type": "event"
        },
        {
            "anonymous": false,
            "inputs": [
                {
                    "indexed": true,
                    "internalType": "string",
                    "name": "oracleNameIdx",
                    "type": "string"
                },
                {
                    "indexed": false,
                    "internalType": "string",
                    "name": "oracleName",
                    "type": "string"
                },
                {
                    "indexed": false,
                    "internalType": "uint256",
                    "name": "seqNumber",
                    "type": "uint256"
                },
                {
                    "indexed": false,
                    "internalType": "address",
                    "name": "oracleAddress",
                    "type": "address"
                },
                {
                    "indexed": false,
                    "internalType": "string",
                    "name": "time",
                    "type": "string"
                }
            ],
            "name": "OracleUndockEvent",
            "type": "event"
        },
        {
            "anonymous": false,
            "inputs": [
                {
                    "indexed": true,
                    "internalType": "address",
                    "name": "previousOwner",
                    "type": "address"
                },
                {
                    "indexed": true,
                    "internalType": "address",
                    "name": "newOwner",
                    "type": "address"
                }
            ],
            "name": "OwnershipTransferred",
            "type": "event"
        },
        {
            "inputs": [],
            "name": "HasDataReadyFlag",
            "outputs": [
                {
                    "internalType": "bool",
                    "name": "",
                    "type": "bool"
                }
            ],
            "stateMutability": "view",
            "type": "function"
        },
        {
            "inputs": [],
            "name": "HasDockedOracleFlag",
            "outputs": [
                {
                    "internalType": "bool",
                    "name": "",
                    "type": "bool"
                }
            ],
            "stateMutability": "view",
            "type": "function"
        },
        {
            "inputs": [],
            "name": "OracleName",
            "outputs": [
                {
                    "internalType": "string",
                    "name": "",
                    "type": "string"
                }
            ],
            "stateMutability": "view",
            "type": "function"
        },
        {
            "inputs": [
                {
                    "internalType": "string",
                    "name": "_name",
                    "type": "string"
                },
                {
                    "internalType": "string",
                    "name": "_description",
                    "type": "string"
                },
                {
                    "internalType": "string",
                    "name": "_accessPath",
                    "type": "string"
                },
                {
                    "internalType": "string",
                    "name": "_creationTime",
                    "type": "string"
                }
            ],
            "name": "addDataItem",
            "outputs": [
                {
                    "internalType": "bytes32",
                    "name": "",
                    "type": "bytes32"
                }
            ],
            "stateMutability": "nonpayable",
            "type": "function"
        },
        {
            "inputs": [],
            "name": "addTestData",
            "outputs": [],
            "stateMutability": "nonpayable",
            "type": "function"
        },
        {
            "inputs": [
                {
                    "internalType": "bytes32",
                    "name": "_dataItemId",
                    "type": "bytes32"
                }
            ],
            "name": "dataItemExists",
            "outputs": [
                {
                    "internalType": "bool",
                    "name": "",
                    "type": "bool"
                }
            ],
            "stateMutability": "view",
            "type": "function"
        },
        {
            "inputs": [
                {
                    "internalType": "string",
                    "name": "_oracleName",
                    "type": "string"
                },
                {
                    "internalType": "string",
                    "name": "_oracleNameHash",
                    "type": "string"
                },
                {
                    "internalType": "uint256",
                    "name": "_seqNumber",
                    "type": "uint256"
                },
                {
                    "internalType": "address",
                    "name": "_oracleAddress",
                    "type": "address"
                }
            ],
            "name": "dockOracle",
            "outputs": [
                {
                    "internalType": "string",
                    "name": "",
                    "type": "string"
                }
            ],
            "stateMutability": "payable",
            "type": "function"
        },
        {
            "inputs": [],
            "name": "getAddress",
            "outputs": [
                {
                    "internalType": "address",
                    "name": "",
                    "type": "address"
                }
            ],
            "stateMutability": "view",
            "type": "function"
        },
        {
            "inputs": [],
            "name": "getAllDataItems",
            "outputs": [
                {
                    "internalType": "bytes32[]",
                    "name": "",
                    "type": "bytes32[]"
                }
            ],
            "stateMutability": "view",
            "type": "function"
        },
        {
            "inputs": [
                {
                    "internalType": "bytes32",
                    "name": "_dataItemId",
                    "type": "bytes32"
                }
            ],
            "name": "getDataItem",
            "outputs": [
                {
                    "components": [
                        {
                            "internalType": "bytes32",
                            "name": "id",
                            "type": "bytes32"
                        },
                        {
                            "internalType": "string",
                            "name": "name",
                            "type": "string"
                        },
                        {
                            "internalType": "string",
                            "name": "description",
                            "type": "string"
                        },
                        {
                            "internalType": "string",
                            "name": "externalName",
                            "type": "string"
                        },
                        {
                            "internalType": "string",
                            "name": "value",
                            "type": "string"
                        },
                        {
                            "internalType": "string",
                            "name": "externalValue",
                            "type": "string"
                        },
                        {
                            "internalType": "string",
                            "name": "quality",
                            "type": "string"
                        },
                        {
                            "internalType": "string",
                            "name": "updateTime",
                            "type": "string"
                        },
                        {
                            "internalType": "string",
                            "name": "serverTime",
                            "type": "string"
                        },
                        {
                            "internalType": "string",
                            "name": "creationTime",
                            "type": "string"
                        },
                        {
                            "internalType": "string",
                            "name": "accessPath",
                            "type": "string"
                        },
                        {
                            "internalType": "enum DataPumpOracle.DataItemOutcome",
                            "name": "outcome",
                            "type": "uint8"
                        }
                    ],
                    "internalType": "struct DataPumpOracle.DataItem",
                    "name": "",
                    "type": "tuple"
                }
            ],
            "stateMutability": "view",
            "type": "function"
        },
        {
            "inputs": [
                {
                    "internalType": "bytes32",
                    "name": "_dataItemId",
                    "type": "bytes32"
                }
            ],
            "name": "getDataItemValue",
            "outputs": [
                {
                    "internalType": "string",
                    "name": "",
                    "type": "string"
                }
            ],
            "stateMutability": "view",
            "type": "function"
        },
        {
            "inputs": [
                {
                    "internalType": "bool",
                    "name": "_pending",
                    "type": "bool"
                }
            ],
            "name": "getMostRecentDataItem",
            "outputs": [
                {
                    "components": [
                        {
                            "internalType": "bytes32",
                            "name": "id",
                            "type": "bytes32"
                        },
                        {
                            "internalType": "string",
                            "name": "name",
                            "type": "string"
                        },
                        {
                            "internalType": "string",
                            "name": "description",
                            "type": "string"
                        },
                        {
                            "internalType": "string",
                            "name": "externalName",
                            "type": "string"
                        },
                        {
                            "internalType": "string",
                            "name": "value",
                            "type": "string"
                        },
                        {
                            "internalType": "string",
                            "name": "externalValue",
                            "type": "string"
                        },
                        {
                            "internalType": "string",
                            "name": "quality",
                            "type": "string"
                        },
                        {
                            "internalType": "string",
                            "name": "updateTime",
                            "type": "string"
                        },
                        {
                            "internalType": "string",
                            "name": "serverTime",
                            "type": "string"
                        },
                        {
                            "internalType": "string",
                            "name": "creationTime",
                            "type": "string"
                        },
                        {
                            "internalType": "string",
                            "name": "accessPath",
                            "type": "string"
                        },
                        {
                            "internalType": "enum DataPumpOracle.DataItemOutcome",
                            "name": "outcome",
                            "type": "uint8"
                        }
                    ],
                    "internalType": "struct DataPumpOracle.DataItem",
                    "name": "",
                    "type": "tuple"
                }
            ],
            "stateMutability": "view",
            "type": "function"
        },
        {
            "inputs": [],
            "name": "getPendingDataItems",
            "outputs": [
                {
                    "internalType": "bytes32[]",
                    "name": "",
                    "type": "bytes32[]"
                }
            ],
            "stateMutability": "view",
            "type": "function"
        },
        {
            "inputs": [],
            "name": "kill",
            "outputs": [],
            "stateMutability": "nonpayable",
            "type": "function"
        },
        {
            "inputs": [],
            "name": "owner",
            "outputs": [
                {
                    "internalType": "address",
                    "name": "",
                    "type": "address"
                }
            ],
            "stateMutability": "view",
            "type": "function"
        },
        {
            "inputs": [
                {
                    "internalType": "string",
                    "name": "_oracleName",
                    "type": "string"
                },
                {
                    "internalType": "uint256",
                    "name": "_seqNumber",
                    "type": "uint256"
                },
                {
                    "internalType": "address",
                    "name": "_oracleAddress",
                    "type": "address"
                }
            ],
            "name": "pingOracle",
            "outputs": [
                {
                    "internalType": "string",
                    "name": "",
                    "type": "string"
                }
            ],
            "stateMutability": "payable",
            "type": "function"
        },
        {
            "inputs": [
                {
                    "internalType": "bytes32",
                    "name": "_dataItemId",
                    "type": "bytes32"
                },
                {
                    "internalType": "string",
                    "name": "_value",
                    "type": "string"
                }
            ],
            "name": "setDataItemValueById",
            "outputs": [
                {
                    "internalType": "string",
                    "name": "",
                    "type": "string"
                }
            ],
            "stateMutability": "payable",
            "type": "function"
        },
        {
            "inputs": [
                {
                    "internalType": "string",
                    "name": "_name",
                    "type": "string"
                },
                {
                    "internalType": "string",
                    "name": "_value",
                    "type": "string"
                }
            ],
            "name": "setDataItemValueByName",
            "outputs": [
                {
                    "internalType": "string",
                    "name": "",
                    "type": "string"
                }
            ],
            "stateMutability": "payable",
            "type": "function"
        },
        {
            "inputs": [],
            "name": "testConnection",
            "outputs": [
                {
                    "internalType": "bool",
                    "name": "",
                    "type": "bool"
                }
            ],
            "stateMutability": "pure",
            "type": "function"
        },
        {
            "inputs": [
                {
                    "internalType": "address",
                    "name": "newOwner",
                    "type": "address"
                }
            ],
            "name": "transferOwnership",
            "outputs": [],
            "stateMutability": "nonpayable",
            "type": "function"
        },
        {
            "inputs": [
                {
                    "internalType": "string",
                    "name": "_oracleName",
                    "type": "string"
                },
                {
                    "internalType": "uint256",
                    "name": "_seqNumber",
                    "type": "uint256"
                },
                {
                    "internalType": "address",
                    "name": "_oracleAddress",
                    "type": "address"
                }
            ],
            "name": "undockOracle",
            "outputs": [
                {
                    "internalType": "string",
                    "name": "",
                    "type": "string"
                }
            ],
            "stateMutability": "payable",
            "type": "function"
        }
    ],
    "bytecode": "60806040526006805461ffff191690553480156200001c57600080fd5b50600080546001600160a01b031916331790556040805180820190915260208082527f55707065726261792053797374656d73204461746150756d70204f7261636c6591810191825262000073916005916200007a565b506200015d565b828054620000889062000120565b90600052602060002090601f016020900481019282620000ac5760008555620000f7565b82601f10620000c757805160ff1916838001178555620000f7565b82800160010185558215620000f7579182015b82811115620000f7578251825591602001919060010190620000da565b506200010592915062000109565b5090565b5b808211156200010557600081556001016200010a565b600181811c908216806200013557607f821691505b602082108114156200015757634e487b7160e01b600052602260045260246000fd5b50919050565b6120d3806200016d6000396000f3fe60806040526004361061012a5760003560e01c8063872a8d67116100ab578063a212b4541161006f578063a212b454146102f0578063bf2a8cb514610305578063c9dff25f14610333578063da9fce8914610346578063e52cc4231461035b578063f2fde38b1461037b57600080fd5b8063872a8d671461026e5780638da5cb5b146102815780638ed45227146102a15780639363e411146102c3578063a0063363146102d657600080fd5b80633412a15c116100f25780633412a15c146101d057806338cc4831146101e45780633da061c21461020b57806341c0e1b51461022a5780634739549e1461024157600080fd5b8063069310251461012f5780630fa4bf721461016557806312d743071461017a57806318089bd71461018d57806322db97ed146101a0575b600080fd5b34801561013b57600080fd5b5061014f61014a3660046119fc565b61039b565b60405161015c9190611a71565b60405180910390f35b34801561017157600080fd5b5061014f610492565b61014f610188366004611b45565b610520565b61014f61019b366004611bc3565b6107ac565b3480156101ac57600080fd5b506101c06101bb3660046119fc565b6108fd565b604051901515815260200161015c565b3480156101dc57600080fd5b5060016101c0565b3480156101f057600080fd5b50305b6040516001600160a01b03909116815260200161015c565b34801561021757600080fd5b506006546101c090610100900460ff1681565b34801561023657600080fd5b5061023f610924565b005b34801561024d57600080fd5b5061026161025c366004611c27565b61093e565b60405161015c9190611c81565b61014f61027c366004611dd8565b6109a0565b34801561028d57600080fd5b506000546101f3906001600160a01b031681565b3480156102ad57600080fd5b506102b6610ac2565b60405161015c9190611e15565b61014f6102d1366004611e59565b610c51565b3480156102e257600080fd5b506006546101c09060ff1681565b3480156102fc57600080fd5b5061023f610cf6565b34801561031157600080fd5b50610325610320366004611eb0565b610db4565b60405190815260200161015c565b61014f610341366004611e59565b6110a0565b34801561035257600080fd5b506102b6611125565b34801561036757600080fd5b506102616103763660046119fc565b6111f9565b34801561038757600080fd5b5061023f610396366004611f5d565b61184f565b60606103a6826108fd565b1561046d57600060036103b8846118d4565b815481106103c8576103c8611f78565b90600052602060002090600c020190508060040180546103e790611f8e565b80601f016020809104026020016040519081016040528092919081815260200182805461041390611f8e565b80156104605780601f1061043557610100808354040283529160200191610460565b820191906000526020600020905b81548152906001019060200180831161044357829003601f168201915b5050505050915050919050565b50506040805180820190915260048152631b9d5b1b60e21b602082015290565b919050565b6005805461049f90611f8e565b80601f01602080910402602001604051908101604052809291908181526020018280546104cb90611f8e565b80156105185780601f106104ed57610100808354040283529160200191610518565b820191906000526020600020905b8154815290600101906020018083116104fb57829003601f168201915b505050505081565b6000546060906001600160a01b0316331461053a57600080fd5b61056c6040518060a0016040528060608152602001606081526020016060815260200160608152602001606081525090565b60408051808201825260038152626e6f7760e81b6020808301919091526006805461ff001916610100179055915188928392889288926000916002916105b491889101611fc3565b60408051601f19818403018152908290526105ce91611fc3565b602060405180830381855afa1580156105eb573d6000803e3d6000fd5b5050506040513d601f19601f8201168201806040525081019061060e9190611fdf565b8c885260208089018d90526040805180820182526004808252631b9d5b1b60e21b828501819052838d01929092528251808401845281815280850183905260608d0152825180840190935282528183015260808a0152600180548082018255600091909152895180519394508a9360059092027fb10e2d527612073b26eecdfd717e6a320cf44b4afac2b0732d9fcbe2b7fa0cf601926106b3928492909101906118ef565b5060208281015180516106cc92600185019201906118ef565b50604082015180516106e89160028401916020909101906118ef565b50606082015180516107049160038401916020909101906118ef565b50608082015180516107209160048401916020909101906118ef565b50506001805460009250610734919061200e565b6000838152600260205260409081902082905551909150610756908890611fc3565b60405180910390207f588dfce29ff2ad4b1ceb5e59199698af81061e3971154f570bed99212989200f878787876040516107939493929190612025565b60405180910390a250939b9a5050505050505050505050565b60606000836040516020016107c19190611fc3565b6040516020818303038152906040528051906020012090506107e2816108fd565b156108d957600060036107f4836118d4565b8154811061080457610804611f78565b90600052602060002090600c020190508381600501908051906020019061082c9291906118ef565b50835161084290600483019060208701906118ef565b5080600401805461085290611f8e565b80601f016020809104026020016040519081016040528092919081815260200182805461087e90611f8e565b80156108cb5780601f106108a0576101008083540402835291602001916108cb565b820191906000526020600020905b8154815290600101906020018083116108ae57829003601f168201915b5050505050925050506108f7565b50506040805180820190915260048152631b9d5b1b60e21b60208201525b92915050565b60035460009061090f57506000919050565b50600090815260046020526040902054151590565b6000546001600160a01b0316331461093b57600080fd5b33ff5b610946611973565b60006060831561095f57610958610ac2565b905061096a565b610967611125565b90505b80511561098f578060008151811061098457610984611f78565b602002602001015191505b610998826111f9565b949350505050565b60606109ab836108fd565b15610aa157600060036109bd856118d4565b815481106109cd576109cd611f78565b90600052602060002090600c02019050828160050190805190602001906109f59291906118ef565b508251610a0b90600483019060208601906118ef565b50806004018054610a1b90611f8e565b80601f0160208091040260200160405190810160405280929190818152602001828054610a4790611f8e565b8015610a945780601f10610a6957610100808354040283529160200191610a94565b820191906000526020600020905b815481529060010190602001808311610a7757829003601f168201915b50505050509150506108f7565b506040805180820190915260048152631b9d5b1b60e21b60208201526108f7565b60606000805b600354811015610b3557600060038281548110610ae757610ae7611f78565b60009182526020909120600b600c90920201015460ff166003811115610b0f57610b0f611c49565b1415610b235781610b1f8161206b565b9250505b80610b2d8161206b565b915050610ac8565b5060008167ffffffffffffffff811115610b5157610b51611a8b565b604051908082528060200260200182016040528015610b7a578160200160208202803683370190505b50905081156108f7576003546000905b8015610c495760006003610b9f60018461200e565b81548110610baf57610baf611f78565b60009182526020909120600b600c90920201015460ff166003811115610bd757610bd7611c49565b1415610c37576003610bea60018361200e565b81548110610bfa57610bfa611f78565b90600052602060002090600c020160000154838380610c189061206b565b945081518110610c2a57610c2a611f78565b6020026020010181815250505b80610c4181612086565b915050610b8a565b505092915050565b6000546060906001600160a01b03163314610c6b57600080fd5b60408051808201825260038152626e6f7760e81b60208201526006805461ff001916905590518591829186918691610ca4908590611fc3565b60405180910390207f689234b1f84abaa0c5d7a748171bcb398b19baff5c373f8baf2cce339ed26c8885858585604051610ce19493929190612025565b60405180910390a25091979650505050505050565b6000546001600160a01b03163314610d0d57600080fd5b610db16040518060400160405280600e81526020016d115b1958dd1c9a58d1195b585b9960921b8152506040518060400160405280601c81526020017f456c6563747269636974792044656d616e6420666f72203133343730000000008152506040518060400160405280600a8152602001695468696e67537065616b60b01b815250604051806040016040528060038152602001624e6f7760e81b815250610db4565b50565b600080546001600160a01b03163314610dcc57600080fd5b600085604051602001610ddf9190611fc3565b604051602081830303815290604052805190602001209050610e00816108fd565b15610e0a57600080fd5b610e12611973565b6020818101888152604080840189905261014084018890526101208401878152815180830183526004808252631b9d5b1b60e21b82870181905260a08801929092528351808501855281815280870183905260608801528351808501855281815280870183905260808801528351808501855281815280870183905260c0880152835180850185528181528087018390529092528251808401845282815280860182905260e08701528251808401909352908252818401526101008401526000610160840181905260038054600181018255915283517fc2575a0e9e593c00f959f8c92f12db2869c3395a3b0502d05e2516446f71f85b600c909202918201908155915180518594610f48937fc2575a0e9e593c00f959f8c92f12db2869c3395a3b0502d05e2516446f71f85c019201906118ef565b5060408201518051610f649160028401916020909101906118ef565b5060608201518051610f809160038401916020909101906118ef565b5060808201518051610f9c9160048401916020909101906118ef565b5060a08201518051610fb89160058401916020909101906118ef565b5060c08201518051610fd49160068401916020909101906118ef565b5060e08201518051610ff09160078401916020909101906118ef565b50610100820151805161100d9160088401916020909101906118ef565b50610120820151805161102a9160098401916020909101906118ef565b50610140820151805161104791600a8401916020909101906118ef565b50610160820151600b8201805460ff1916600183600381111561106c5761106c611c49565b021790555050600354600091506110859060019061200e565b60008481526004602052604090205550909695505050505050565b6000546060906001600160a01b031633146110ba57600080fd5b60408051808201825260038152626e6f7760e81b6020820152905185918291869186916110e8908590611fc3565b60405180910390207f96648abfb73feb100d29732adbec35801844ef7b1fb5de80656e869fe8488c7485858585604051610ce19493929190612025565b60035460609060009067ffffffffffffffff81111561114657611146611a8b565b60405190808252806020026020018201604052801561116f578160200160208202803683370190505b506003549091501561048d576003546000905b80156111f257600361119560018361200e565b815481106111a5576111a5611f78565b90600052602060002090600c0201600001548383806111c39061206b565b9450815181106111d5576111d5611f78565b6020908102919091010152806111ea81612086565b915050611182565b5050919050565b611201611973565b611209611973565b611212836108fd565b156108f75760006003611224856118d4565b8154811061123457611234611f78565b90600052602060002090600c0201905080604051806101800160405290816000820154815260200160018201805461126b90611f8e565b80601f016020809104026020016040519081016040528092919081815260200182805461129790611f8e565b80156112e45780601f106112b9576101008083540402835291602001916112e4565b820191906000526020600020905b8154815290600101906020018083116112c757829003601f168201915b505050505081526020016002820180546112fd90611f8e565b80601f016020809104026020016040519081016040528092919081815260200182805461132990611f8e565b80156113765780601f1061134b57610100808354040283529160200191611376565b820191906000526020600020905b81548152906001019060200180831161135957829003601f168201915b5050505050815260200160038201805461138f90611f8e565b80601f01602080910402602001604051908101604052809291908181526020018280546113bb90611f8e565b80156114085780601f106113dd57610100808354040283529160200191611408565b820191906000526020600020905b8154815290600101906020018083116113eb57829003601f168201915b5050505050815260200160048201805461142190611f8e565b80601f016020809104026020016040519081016040528092919081815260200182805461144d90611f8e565b801561149a5780601f1061146f5761010080835404028352916020019161149a565b820191906000526020600020905b81548152906001019060200180831161147d57829003601f168201915b505050505081526020016005820180546114b390611f8e565b80601f01602080910402602001604051908101604052809291908181526020018280546114df90611f8e565b801561152c5780601f106115015761010080835404028352916020019161152c565b820191906000526020600020905b81548152906001019060200180831161150f57829003601f168201915b5050505050815260200160068201805461154590611f8e565b80601f016020809104026020016040519081016040528092919081815260200182805461157190611f8e565b80156115be5780601f10611593576101008083540402835291602001916115be565b820191906000526020600020905b8154815290600101906020018083116115a157829003601f168201915b505050505081526020016007820180546115d790611f8e565b80601f016020809104026020016040519081016040528092919081815260200182805461160390611f8e565b80156116505780601f1061162557610100808354040283529160200191611650565b820191906000526020600020905b81548152906001019060200180831161163357829003601f168201915b5050505050815260200160088201805461166990611f8e565b80601f016020809104026020016040519081016040528092919081815260200182805461169590611f8e565b80156116e25780601f106116b7576101008083540402835291602001916116e2565b820191906000526020600020905b8154815290600101906020018083116116c557829003601f168201915b505050505081526020016009820180546116fb90611f8e565b80601f016020809104026020016040519081016040528092919081815260200182805461172790611f8e565b80156117745780601f1061174957610100808354040283529160200191611774565b820191906000526020600020905b81548152906001019060200180831161175757829003601f168201915b50505050508152602001600a8201805461178d90611f8e565b80601f01602080910402602001604051908101604052809291908181526020018280546117b990611f8e565b80156118065780601f106117db57610100808354040283529160200191611806565b820191906000526020600020905b8154815290600101906020018083116117e957829003601f168201915b5050509183525050600b82015460209091019060ff16600381111561182d5761182d611c49565b600381111561183e5761183e611c49565b905250949350505050565b50919050565b6000546001600160a01b0316331461186657600080fd5b6001600160a01b03811661187957600080fd5b600080546040516001600160a01b03808516939216917f8be0079c531659141344cd1fd0a4f28419497f9722a3daafe3b4186f6b6457e091a3600080546001600160a01b0319166001600160a01b0392909216919091179055565b6000818152600460205260408120546108f79060019061200e565b8280546118fb90611f8e565b90600052602060002090601f01602090048101928261191d5760008555611963565b82601f1061193657805160ff1916838001178555611963565b82800160010185558215611963579182015b82811115611963578251825591602001919060010190611948565b5061196f9291506119e7565b5090565b6040518061018001604052806000801916815260200160608152602001606081526020016060815260200160608152602001606081526020016060815260200160608152602001606081526020016060815260200160608152602001600060038111156119e2576119e2611c49565b905290565b5b8082111561196f57600081556001016119e8565b600060208284031215611a0e57600080fd5b5035919050565b60005b83811015611a30578181015183820152602001611a18565b83811115611a3f576000848401525b50505050565b60008151808452611a5d816020860160208601611a15565b601f01601f19169290920160200192915050565b602081526000611a846020830184611a45565b9392505050565b634e487b7160e01b600052604160045260246000fd5b600082601f830112611ab257600080fd5b813567ffffffffffffffff80821115611acd57611acd611a8b565b604051601f8301601f19908116603f01168101908282118183101715611af557611af5611a8b565b81604052838152866020858801011115611b0e57600080fd5b836020870160208301376000602085830101528094505050505092915050565b80356001600160a01b038116811461048d57600080fd5b60008060008060808587031215611b5b57600080fd5b843567ffffffffffffffff80821115611b7357600080fd5b611b7f88838901611aa1565b95506020870135915080821115611b9557600080fd5b50611ba287828801611aa1565b93505060408501359150611bb860608601611b2e565b905092959194509250565b60008060408385031215611bd657600080fd5b823567ffffffffffffffff80821115611bee57600080fd5b611bfa86838701611aa1565b93506020850135915080821115611c1057600080fd5b50611c1d85828601611aa1565b9150509250929050565b600060208284031215611c3957600080fd5b81358015158114611a8457600080fd5b634e487b7160e01b600052602160045260246000fd5b60048110611c7d57634e487b7160e01b600052602160045260246000fd5b9052565b602081528151602082015260006020830151610180806040850152611caa6101a0850183611a45565b91506040850151601f1980868503016060870152611cc88483611a45565b93506060870151915080868503016080870152611ce58483611a45565b935060808701519150808685030160a0870152611d028483611a45565b935060a08701519150808685030160c0870152611d1f8483611a45565b935060c08701519150808685030160e0870152611d3c8483611a45565b935060e08701519150610100818786030181880152611d5b8584611a45565b945080880151925050610120818786030181880152611d7a8584611a45565b945080880151925050610140818786030181880152611d998584611a45565b945080880151925050610160818786030181880152611db88584611a45565b94508088015192505050611dce82860182611c5f565b5090949350505050565b60008060408385031215611deb57600080fd5b82359150602083013567ffffffffffffffff811115611e0957600080fd5b611c1d85828601611aa1565b6020808252825182820181905260009190848201906040850190845b81811015611e4d57835183529284019291840191600101611e31565b50909695505050505050565b600080600060608486031215611e6e57600080fd5b833567ffffffffffffffff811115611e8557600080fd5b611e9186828701611aa1565b93505060208401359150611ea760408501611b2e565b90509250925092565b60008060008060808587031215611ec657600080fd5b843567ffffffffffffffff80821115611ede57600080fd5b611eea88838901611aa1565b95506020870135915080821115611f0057600080fd5b611f0c88838901611aa1565b94506040870135915080821115611f2257600080fd5b611f2e88838901611aa1565b93506060870135915080821115611f4457600080fd5b50611f5187828801611aa1565b91505092959194509250565b600060208284031215611f6f57600080fd5b611a8482611b2e565b634e487b7160e01b600052603260045260246000fd5b600181811c90821680611fa257607f821691505b6020821081141561184957634e487b7160e01b600052602260045260246000fd5b60008251611fd5818460208701611a15565b9190910192915050565b600060208284031215611ff157600080fd5b5051919050565b634e487b7160e01b600052601160045260246000fd5b60008282101561202057612020611ff8565b500390565b6080815260006120386080830187611a45565b602083018690526001600160a01b038516604084015282810360608401526120608185611a45565b979650505050505050565b600060001982141561207f5761207f611ff8565b5060010190565b60008161209557612095611ff8565b50600019019056fea264697066735822122019957cabd714035cc34b24f194dc267ae3400ca0ae54219b615df8521e05804b64736f6c63430008090033",
    "sourcePath": "c:/C2_BETA1/SmartContracts/EthOracle/contracts/DataPumpOracle.sol",
    "compiler": {
        "name": "solc",
        "version": "0.8.9+commit.e5eed63a"
    },
    "functionHashes": {
        "HasDataReadyFlag()": "a0063363",
        "HasDockedOracleFlag()": "3da061c2",
        "OracleName()": "0fa4bf72",
        "addDataItem(string,string,string,string)": "bf2a8cb5",
        "addTestData()": "a212b454",
        "dataItemExists(bytes32)": "22db97ed",
        "dockOracle(string,string,uint256,address)": "12d74307",
        "getAddress()": "38cc4831",
        "getAllDataItems()": "da9fce89",
        "getDataItem(bytes32)": "e52cc423",
        "getDataItemValue(bytes32)": "06931025",
        "getMostRecentDataItem(bool)": "4739549e",
        "getPendingDataItems()": "8ed45227",
        "kill()": "41c0e1b5",
        "owner()": "8da5cb5b",
        "pingOracle(string,uint256,address)": "c9dff25f",
        "setDataItemValueById(bytes32,string)": "872a8d67",
        "setDataItemValueByName(string,string)": "18089bd7",
        "testConnection()": "3412a15c",
        "transferOwnership(address)": "f2fde38b",
        "undockOracle(string,uint256,address)": "9363e411"
    },
    "gasEstimates": {
        "creation": {
            "codeDepositCost": "1680600",
            "executionCost": "infinite",
            "totalCost": "infinite"
        },
        "external": {
            "HasDataReadyFlag()": "2421",
            "HasDockedOracleFlag()": "2388",
            "OracleName()": "infinite",
            "addDataItem(string,string,string,string)": "infinite",
            "addTestData()": "infinite",
            "dataItemExists(bytes32)": "4699",
            "dockOracle(string,string,uint256,address)": "infinite",
            "getAddress()": "246",
            "getAllDataItems()": "infinite",
            "getDataItem(bytes32)": "infinite",
            "getDataItemValue(bytes32)": "infinite",
            "getMostRecentDataItem(bool)": "infinite",
            "getPendingDataItems()": "infinite",
            "kill()": "29966",
            "owner()": "2382",
            "pingOracle(string,uint256,address)": "infinite",
            "setDataItemValueById(bytes32,string)": "infinite",
            "setDataItemValueByName(string,string)": "infinite",
            "testConnection()": "221",
            "transferOwnership(address)": "30532",
            "undockOracle(string,uint256,address)": "infinite"
        },
        "internal": {
            "_getDataItemIndex(bytes32)": "2273"
        }
    }
}