{
  "contractName": "CurrentForCarbon",
  "abi": [
    {
      "inputs": [],
      "stateMutability": "nonpayable",
      "type": "constructor"
    },
    {
      "anonymous": false,
      "inputs": [
        {
          "indexed": true,
          "internalType": "uint256",
          "name": "slice",
          "type": "uint256"
        },
        {
          "indexed": true,
          "internalType": "bytes32",
          "name": "gamePlayerIDIdx",
          "type": "bytes32"
        },
        {
          "indexed": false,
          "internalType": "string",
          "name": "gamePlayerID",
          "type": "string"
        },
        {
          "indexed": false,
          "internalType": "string",
          "name": "gameEventID",
          "type": "string"
        },
        {
          "indexed": false,
          "internalType": "string",
          "name": "gameEventStartTime",
          "type": "string"
        },
        {
          "indexed": false,
          "internalType": "string",
          "name": "gameEventDuration",
          "type": "string"
        },
        {
          "indexed": false,
          "internalType": "string",
          "name": "pointsPerWatt",
          "type": "string"
        },
        {
          "indexed": false,
          "internalType": "string",
          "name": "averagePowerInWatts",
          "type": "string"
        },
        {
          "indexed": false,
          "internalType": "string",
          "name": "baselineAveragePowerInWatts",
          "type": "string"
        },
        {
          "indexed": false,
          "internalType": "string",
          "name": "deltaAveragePowerInWatts",
          "type": "string"
        },
        {
          "indexed": false,
          "internalType": "string",
          "name": "wattPoints",
          "type": "string"
        },
        {
          "indexed": false,
          "internalType": "string",
          "name": "awardValue",
          "type": "string"
        }
      ],
      "name": "GameCombinedEventResultEvent",
      "type": "event"
    },
    {
      "anonymous": false,
      "inputs": [
        {
          "indexed": true,
          "internalType": "uint256",
          "name": "slice",
          "type": "uint256"
        },
        {
          "indexed": false,
          "internalType": "string",
          "name": "gameEventID",
          "type": "string"
        },
        {
          "indexed": false,
          "internalType": "string",
          "name": "gameEventName",
          "type": "string"
        },
        {
          "indexed": false,
          "internalType": "string",
          "name": "gameEventType",
          "type": "string"
        },
        {
          "indexed": false,
          "internalType": "string",
          "name": "gameEventStartTime",
          "type": "string"
        },
        {
          "indexed": false,
          "internalType": "string",
          "name": "gameEventEndTime",
          "type": "string"
        },
        {
          "indexed": false,
          "internalType": "string",
          "name": "gameEventDuration",
          "type": "string"
        },
        {
          "indexed": false,
          "internalType": "string",
          "name": "dollarPerPoint",
          "type": "string"
        },
        {
          "indexed": false,
          "internalType": "string",
          "name": "pointsPerWatt",
          "type": "string"
        },
        {
          "indexed": false,
          "internalType": "string",
          "name": "pointsPerPercent",
          "type": "string"
        }
      ],
      "name": "GameEventEvent",
      "type": "event"
    },
    {
      "anonymous": false,
      "inputs": [
        {
          "indexed": true,
          "internalType": "uint256",
          "name": "slice",
          "type": "uint256"
        },
        {
          "indexed": false,
          "internalType": "string",
          "name": "gamePlayerID",
          "type": "string"
        },
        {
          "indexed": false,
          "internalType": "string",
          "name": "dataConnectionString",
          "type": "string"
        },
        {
          "indexed": false,
          "internalType": "address",
          "name": "gamePlayerAddress",
          "type": "address"
        },
        {
          "indexed": false,
          "internalType": "string",
          "name": "status",
          "type": "string"
        }
      ],
      "name": "GamePlayerEvent",
      "type": "event"
    },
    {
      "anonymous": false,
      "inputs": [
        {
          "indexed": true,
          "internalType": "uint256",
          "name": "slice",
          "type": "uint256"
        },
        {
          "indexed": true,
          "internalType": "bytes32",
          "name": "gamePlayerIDIdx",
          "type": "bytes32"
        },
        {
          "indexed": false,
          "internalType": "string",
          "name": "gameEventStartTime",
          "type": "string"
        },
        {
          "indexed": false,
          "internalType": "string",
          "name": "gamePlayerID",
          "type": "string"
        },
        {
          "indexed": false,
          "internalType": "string",
          "name": "gameEventID",
          "type": "string"
        },
        {
          "indexed": false,
          "internalType": "string",
          "name": "averagePowerInWatts",
          "type": "string"
        },
        {
          "indexed": false,
          "internalType": "string",
          "name": "baselineAveragePowerInWatts",
          "type": "string"
        },
        {
          "indexed": false,
          "internalType": "string",
          "name": "deltaAveragePowerInWatts",
          "type": "string"
        },
        {
          "indexed": false,
          "internalType": "string",
          "name": "percentPoints",
          "type": "string"
        },
        {
          "indexed": false,
          "internalType": "string",
          "name": "wattPoints",
          "type": "string"
        },
        {
          "indexed": false,
          "internalType": "string",
          "name": "totalPointsAwarded",
          "type": "string"
        },
        {
          "indexed": false,
          "internalType": "string",
          "name": "awardValue",
          "type": "string"
        }
      ],
      "name": "GameResultEvent",
      "type": "event"
    },
    {
      "anonymous": false,
      "inputs": [
        {
          "indexed": true,
          "internalType": "address",
          "name": "previousOwner",
          "type": "address"
        },
        {
          "indexed": true,
          "internalType": "address",
          "name": "newOwner",
          "type": "address"
        }
      ],
      "name": "OwnershipTransferred",
      "type": "event"
    },
    {
      "inputs": [],
      "name": "EventCount",
      "outputs": [
        {
          "internalType": "uint256",
          "name": "",
          "type": "uint256"
        }
      ],
      "stateMutability": "view",
      "type": "function"
    },
    {
      "inputs": [],
      "name": "HasResultReadyFlag",
      "outputs": [
        {
          "internalType": "bool",
          "name": "",
          "type": "bool"
        }
      ],
      "stateMutability": "view",
      "type": "function"
    },
    {
      "inputs": [],
      "name": "PlayerCount",
      "outputs": [
        {
          "internalType": "uint256",
          "name": "",
          "type": "uint256"
        }
      ],
      "stateMutability": "view",
      "type": "function"
    },
    {
      "inputs": [],
      "name": "ResultCount",
      "outputs": [
        {
          "internalType": "uint256",
          "name": "",
          "type": "uint256"
        }
      ],
      "stateMutability": "view",
      "type": "function"
    },
    {
      "inputs": [],
      "name": "_contractName",
      "outputs": [
        {
          "internalType": "string",
          "name": "",
          "type": "string"
        }
      ],
      "stateMutability": "view",
      "type": "function"
    },
    {
      "inputs": [],
      "name": "owner",
      "outputs": [
        {
          "internalType": "address",
          "name": "",
          "type": "address"
        }
      ],
      "stateMutability": "view",
      "type": "function"
    },
    {
      "inputs": [
        {
          "internalType": "address",
          "name": "newOwner",
          "type": "address"
        }
      ],
      "name": "transferOwnership",
      "outputs": [],
      "stateMutability": "nonpayable",
      "type": "function"
    },
    {
      "inputs": [
        {
          "internalType": "bytes32",
          "name": "_gamePlayerIDHash",
          "type": "bytes32"
        }
      ],
      "name": "GamePlayerExists",
      "outputs": [
        {
          "internalType": "bool",
          "name": "",
          "type": "bool"
        }
      ],
      "stateMutability": "view",
      "type": "function"
    },
    {
      "inputs": [
        {
          "internalType": "bytes32",
          "name": "_gameEventIDHash",
          "type": "bytes32"
        }
      ],
      "name": "GameEventExists",
      "outputs": [
        {
          "internalType": "bool",
          "name": "",
          "type": "bool"
        }
      ],
      "stateMutability": "view",
      "type": "function"
    },
    {
      "inputs": [
        {
          "internalType": "bytes32",
          "name": "_gameResultIDHash",
          "type": "bytes32"
        }
      ],
      "name": "GameResultExists",
      "outputs": [
        {
          "internalType": "bool",
          "name": "",
          "type": "bool"
        }
      ],
      "stateMutability": "view",
      "type": "function"
    },
    {
      "inputs": [
        {
          "internalType": "string",
          "name": "gamePlayerID",
          "type": "string"
        },
        {
          "internalType": "address",
          "name": "playerAddress",
          "type": "address"
        },
        {
          "internalType": "string",
          "name": "dataConnectionString",
          "type": "string"
        }
      ],
      "name": "AddGamePlayer",
      "outputs": [],
      "stateMutability": "nonpayable",
      "type": "function"
    },
    {
      "inputs": [
        {
          "internalType": "string",
          "name": "gameEventID",
          "type": "string"
        },
        {
          "internalType": "string",
          "name": "gameEventName",
          "type": "string"
        },
        {
          "internalType": "string",
          "name": "gameEventType",
          "type": "string"
        },
        {
          "internalType": "string",
          "name": "gameEventStartTime",
          "type": "string"
        },
        {
          "internalType": "string",
          "name": "gameEventEndTime",
          "type": "string"
        },
        {
          "internalType": "string",
          "name": "gameEventDuration",
          "type": "string"
        },
        {
          "internalType": "string",
          "name": "dollarPerPoint",
          "type": "string"
        },
        {
          "internalType": "string",
          "name": "pointsPerWatt",
          "type": "string"
        },
        {
          "internalType": "string",
          "name": "pointsPerPercent",
          "type": "string"
        }
      ],
      "name": "AddGameEvent",
      "outputs": [],
      "stateMutability": "nonpayable",
      "type": "function"
    },
    {
      "inputs": [
        {
          "internalType": "string",
          "name": "gamePlayerID",
          "type": "string"
        },
        {
          "internalType": "string",
          "name": "gameEventID",
          "type": "string"
        },
        {
          "internalType": "address",
          "name": "gamePlayerAddress",
          "type": "address"
        },
        {
          "internalType": "string",
          "name": "averagePowerInWatts",
          "type": "string"
        },
        {
          "internalType": "string",
          "name": "baselineAveragePowerInWatts",
          "type": "string"
        },
        {
          "internalType": "string",
          "name": "deltaAveragePowerInWatts",
          "type": "string"
        },
        {
          "internalType": "string",
          "name": "percentPoints",
          "type": "string"
        },
        {
          "internalType": "string",
          "name": "wattPoints",
          "type": "string"
        },
        {
          "internalType": "string",
          "name": "totalPointsAwarded",
          "type": "string"
        },
        {
          "internalType": "string",
          "name": "awardValue",
          "type": "string"
        }
      ],
      "name": "AddGameResult",
      "outputs": [],
      "stateMutability": "nonpayable",
      "type": "function"
    },
    {
      "inputs": [
        {
          "internalType": "string",
          "name": "resultID",
          "type": "string"
        },
        {
          "internalType": "string",
          "name": "status",
          "type": "string"
        }
      ],
      "name": "UpdateResultsStatus",
      "outputs": [],
      "stateMutability": "nonpayable",
      "type": "function"
    },
    {
      "inputs": [
        {
          "internalType": "string",
          "name": "playerID",
          "type": "string"
        },
        {
          "internalType": "string",
          "name": "status",
          "type": "string"
        }
      ],
      "name": "UpdatePlayerStatus",
      "outputs": [],
      "stateMutability": "nonpayable",
      "type": "function"
    },
    {
      "inputs": [],
      "name": "testConnection",
      "outputs": [
        {
          "internalType": "bool",
          "name": "",
          "type": "bool"
        }
      ],
      "stateMutability": "pure",
      "type": "function"
    },
    {
      "inputs": [],
      "name": "getAddress",
      "outputs": [
        {
          "internalType": "address",
          "name": "",
          "type": "address"
        }
      ],
      "stateMutability": "view",
      "type": "function"
    },
    {
      "inputs": [],
      "name": "addTestData",
      "outputs": [],
      "stateMutability": "nonpayable",
      "type": "function"
    },
    {
      "inputs": [
        {
          "internalType": "string",
          "name": "source",
          "type": "string"
        }
      ],
      "name": "StringToBytes32",
      "outputs": [
        {
          "internalType": "bytes32",
          "name": "result",
          "type": "bytes32"
        }
      ],
      "stateMutability": "pure",
      "type": "function"
    },
    {
      "inputs": [],
      "name": "kill",
      "outputs": [],
      "stateMutability": "nonpayable",
      "type": "function"
    }
  ],
  "bytecode": "0x608060405261270f600d556000600f60006101000a81548160ff0219169083151502179055506000601055600060115560006012553480156200004157600080fd5b50336000806101000a81548173ffffffffffffffffffffffffffffffffffffffff021916908373ffffffffffffffffffffffffffffffffffffffff16021790555060405180606001604052806024815260200162002c6360249139600e9081620000ac91906200036f565b5060006007600001819055506000600760010181905550600060096000018190555060006009600101819055506000600b600001819055506000600b6001018190555062000456565b600081519050919050565b7f4e487b7100000000000000000000000000000000000000000000000000000000600052604160045260246000fd5b7f4e487b7100000000000000000000000000000000000000000000000000000000600052602260045260246000fd5b600060028204905060018216806200017757607f821691505b6020821081036200018d576200018c6200012f565b5b50919050565b60008190508160005260206000209050919050565b60006020601f8301049050919050565b600082821b905092915050565b600060088302620001f77fffffffffffffffffffffffffffffffffffffffffffffffffffffffffffffffff82620001b8565b620002038683620001b8565b95508019841693508086168417925050509392505050565b6000819050919050565b6000819050919050565b6000620002506200024a62000244846200021b565b62000225565b6200021b565b9050919050565b6000819050919050565b6200026c836200022f565b620002846200027b8262000257565b848454620001c5565b825550505050565b600090565b6200029b6200028c565b620002a881848462000261565b505050565b5b81811015620002d057620002c460008262000291565b600181019050620002ae565b5050565b601f8211156200031f57620002e98162000193565b620002f484620001a8565b8101602085101562000304578190505b6200031c6200031385620001a8565b830182620002ad565b50505b505050565b600082821c905092915050565b6000620003446000198460080262000324565b1980831691505092915050565b60006200035f838362000331565b9150826002028217905092915050565b6200037a82620000f5565b67ffffffffffffffff81111562000396576200039562000100565b5b620003a282546200015e565b620003af828285620002d4565b600060209050601f831160018114620003e75760008415620003d2578287015190505b620003de858262000351565b8655506200044e565b601f198416620003f78662000193565b60005b828110156200042157848901518255600182019150602085019450602081019050620003fa565b868310156200044157848901516200043d601f89168262000331565b8355505b6001600288020188555050505b505050505050565b6127fd80620004666000396000f3fe608060405234801561001057600080fd5b506004361061012c5760003560e01c806369ab83be116100ad578063a212b45411610071578063a212b4541461031f578063c7604ab614610329578063e0b5cca914610345578063f2fde38b14610363578063fe4766cd1461037f5761012c565b806369ab83be146102675780636bd13d43146102855780637954fd32146102a15780638a5ed70b146102d15780638da5cb5b146103015761012c565b806351df2a12116100f457806351df2a12146101b157806358462511146101e15780635ffb2fa9146101fd578063604ede351461021b5780636625f6581461024b5761012c565b806315ccdffa146101315780633412a15c1461014f57806338cc48311461016d57806341c0e1b51461018b57806343a2207914610195575b600080fd5b61013961039d565b6040516101469190611632565b60405180910390f35b6101576103a3565b6040516101649190611668565b60405180910390f35b6101756103ac565b60405161018291906116c4565b60405180910390f35b6101936103b4565b005b6101af60048036038101906101aa9190611839565b610425565b005b6101cb60048036038101906101c691906118e7565b610481565b6040516101d89190611668565b60405180910390f35b6101fb60048036038101906101f69190611940565b6104bd565b005b610205610b38565b6040516102129190611632565b60405180910390f35b61023560048036038101906102309190611b1b565b610b3e565b6040516102429190611b73565b60405180910390f35b61026560048036038101906102609190611b8e565b610b67565b005b61026f610e1e565b60405161027c9190611dd3565b60405180910390f35b61029f600480360381019061029a9190611839565b610eac565b005b6102bb60048036038101906102b691906118e7565b610f08565b6040516102c89190611668565b60405180910390f35b6102eb60048036038101906102e691906118e7565b610f44565b6040516102f89190611668565b60405180910390f35b610309610f80565b60405161031691906116c4565b60405180910390f35b610327610fa4565b005b610343600480360381019061033e9190611df5565b610ffe565b005b61034d611342565b60405161035a9190611668565b60405180910390f35b61037d60048036038101906103789190611e80565b611355565b005b6103876114a3565b6040516103949190611632565b60405180910390f35b60105481565b60006001905090565b600030905090565b60008054906101000a900473ffffffffffffffffffffffffffffffffffffffff1673ffffffffffffffffffffffffffffffffffffffff163373ffffffffffffffffffffffffffffffffffffffff161461040c57600080fd5b3373ffffffffffffffffffffffffffffffffffffffff16ff5b60008054906101000a900473ffffffffffffffffffffffffffffffffffffffff1673ffffffffffffffffffffffffffffffffffffffff163373ffffffffffffffffffffffffffffffffffffffff161461047d57600080fd5b5050565b6000806003805490500361049857600090506104b8565b600060046000848152602001908152602001600020549050600081119150505b919050565b6104c56114a9565b60028b8b6040516020016104da929190611ee9565b6040516020818303038152906040526040516104f69190611f54565b602060405180830381855afa158015610513573d6000803e3d6000fd5b5050506040513d601f19601f820116820180604052508101906105369190611f80565b81602001818152505060028a6040516020016105529190611fad565b60405160208183030381529060405260405161056e9190611f54565b602060405180830381855afa15801561058b573d6000803e3d6000fd5b5050506040513d601f19601f820116820180604052508101906105ae9190611f80565b8160000181815250506105c48160200151610f44565b156105ce57600080fd5b80602001518160a0015160000181815250508a8160a0015160200181905250898160a0015160400181905250888160a001516060019073ffffffffffffffffffffffffffffffffffffffff16908173ffffffffffffffffffffffffffffffffffffffff1681525050878160a0015160a00181905250868160a0015160c00181905250858160a0015160e00181905250848160a001516101000181905250838160a001516101200181905250828160a001516101400181905250818160a0015161016001819052506040518060400160405280600b81526020017f756e636f6e6669726d65640000000000000000000000000000000000000000008152508160a00151610180018190525060058160a0015190806001815401808255809150506001900390600052602060002090600d020160009091909190915060008201518160000155602082015181600101908161072791906121d0565b50604082015181600201908161073d91906121d0565b5060608201518160030160006101000a81548173ffffffffffffffffffffffffffffffffffffffff021916908373ffffffffffffffffffffffffffffffffffffffff1602179055506080820151816004015560a08201518160050190816107a491906121d0565b5060c08201518160060190816107ba91906121d0565b5060e08201518160070190816107d091906121d0565b506101008201518160080190816107e791906121d0565b506101208201518160090190816107fe91906121d0565b5061014082015181600a01908161081591906121d0565b5061016082015181600b01908161082c91906121d0565b5061018082015181600c01908161084391906121d0565b505050600160058054905061085891906122d1565b8160600181815250508060600151600660008360200151815260200190815260200160002081905550600460008260000151815260200190815260200160002054816040018181525050600b60010160008154809291906108b890612305565b9190505550600d54600b600101546108d0919061237c565b600b60000181905550600b6001015460128190555060028b6040516020016108f89190611fad565b6040516020818303038152906040526040516109149190611f54565b602060405180830381855afa158015610931573d6000803e3d6000fd5b5050506040513d601f19601f820116820180604052508101906109549190611f80565b8160800181815250508060800151600b600001547f1eb50463fb50e98d4d1a4502411263290ea2a05ec5a0bdd19854ec8405db395d8360a00151602001518460a001516040015160038660400151815481106109b3576109b26123ad565b5b90600052602060002090600a02016004018660a0015160a001518760a0015160c001518860a0015160e001518960a0015161010001518a60a0015161012001518b60a0015161014001518c60a001516101600151604051610a1d9a99989796959493929190612460565b60405180910390a38060800151600b600001547f540a51014b9d5384260ae0786ba01c9d3e723249faecde7834e52ac5fefa63808360a00151602001518460a00151604001516003866040015181548110610a7b57610a7a6123ad565b5b90600052602060002090600a02016004016003876040015181548110610aa457610aa36123ad565b5b90600052602060002090600a02016006016003886040015181548110610acd57610acc6123ad565b5b90600052602060002090600a02016008018860a0015160a001518960a0015160c001518a60a0015160e001518b60a0015161012001518c60a001516101600151604051610b239a99989796959493929190612542565b60405180910390a35050505050505050505050565b60115481565b6000808290506000815103610b59576000801b915050610b62565b60208301519150505b919050565b600060028a604051602001610b7c9190611fad565b604051602081830303815290604052604051610b989190611f54565b602060405180830381855afa158015610bb5573d6000803e3d6000fd5b5050506040513d601f19601f82011682018060405250810190610bd89190611f80565b9050610be381610f08565b15610bed57600080fd5b610bf56114ee565b818160200181815250508a8160000181905250898160400181905250888160600181905250878160800181905250868160a00181905250858160c00181905250848160e00181905250838161010001819052508281610120018190525060038190806001815401808255809150506001900390600052602060002090600a02016000909190919091506000820151816000019081610c9391906121d0565b50602082015181600101556040820151816002019081610cb391906121d0565b506060820151816003019081610cc991906121d0565b506080820151816004019081610cdf91906121d0565b5060a0820151816005019081610cf591906121d0565b5060c0820151816006019081610d0b91906121d0565b5060e0820151816007019081610d2191906121d0565b50610100820151816008019081610d3891906121d0565b50610120820151816009019081610d4f91906121d0565b50505060006001600380549050610d6691906122d1565b905080600460008581526020019081526020016000208190555060096001016000815480929190610d9690612305565b9190505550600d54600960010154610dae919061237c565b6009600001819055506009600101546011819055506009600001547f8c3da6897907fe53a72c08aef6ddc13ba216ecc9ea11f60becc86919d670f9808d8d8d8d8d8d8d8d8d604051610e0899989796959493929190612624565b60405180910390a2505050505050505050505050565b600e8054610e2b90611ff3565b80601f0160208091040260200160405190810160405280929190818152602001828054610e5790611ff3565b8015610ea45780601f10610e7957610100808354040283529160200191610ea4565b820191906000526020600020905b815481529060010190602001808311610e8757829003601f168201915b505050505081565b60008054906101000a900473ffffffffffffffffffffffffffffffffffffffff1673ffffffffffffffffffffffffffffffffffffffff163373ffffffffffffffffffffffffffffffffffffffff1614610f0457600080fd5b5050565b60008060018054905003610f1f5760009050610f3f565b600060026000848152602001908152602001600020549050600081119150505b919050565b60008060058054905003610f5b5760009050610f7b565b600060066000848152602001908152602001600020549050600081119150505b919050565b60008054906101000a900473ffffffffffffffffffffffffffffffffffffffff1681565b60008054906101000a900473ffffffffffffffffffffffffffffffffffffffff1673ffffffffffffffffffffffffffffffffffffffff163373ffffffffffffffffffffffffffffffffffffffff1614610ffc57600080fd5b565b6000600282848660405160200161101793929190612738565b6040516020818303038152906040526040516110339190611f54565b602060405180830381855afa158015611050573d6000803e3d6000fd5b5050506040513d601f19601f820116820180604052508101906110739190611f80565b9050600060028560405160200161108a9190611fad565b6040516020818303038152906040526040516110a69190611f54565b602060405180830381855afa1580156110c3573d6000803e3d6000fd5b5050506040513d601f19601f820116820180604052508101906110e69190611f80565b90506110f181610f08565b156110fb57600080fd5b611103611544565b85816000018190525083816040018190525084816060019073ffffffffffffffffffffffffffffffffffffffff16908173ffffffffffffffffffffffffffffffffffffffff1681525050828160200181815250506040518060400160405280600681526020017f61637469766500000000000000000000000000000000000000000000000000008152508160a00181905250600181908060018154018082558091505060019003906000526020600020906005020160009091909190915060008201518160000190816111d691906121d0565b506020820151816001015560408201518160020190816111f691906121d0565b5060608201518160030160006101000a81548173ffffffffffffffffffffffffffffffffffffffff021916908373ffffffffffffffffffffffffffffffffffffffff16021790555060808201518160030160146101000a81548160ff02191690831515021790555060a082015181600401908161127391906121d0565b50505060006001808054905061128991906122d1565b9050806002600085815260200190815260200160002081905550600760010160008154809291906112b990612305565b9190505550600d546007600101546112d1919061237c565b6007600001819055506007600101546010819055506007600001547f406aa0fa85e050a1e38027cd2cd76ff238f013e9376feb32cfee279719ba0dcf8360000151846040015185606001518660a00151604051611331949392919061276d565b60405180910390a250505050505050565b600f60009054906101000a900460ff1681565b60008054906101000a900473ffffffffffffffffffffffffffffffffffffffff1673ffffffffffffffffffffffffffffffffffffffff163373ffffffffffffffffffffffffffffffffffffffff16146113ad57600080fd5b600073ffffffffffffffffffffffffffffffffffffffff168173ffffffffffffffffffffffffffffffffffffffff16036113e657600080fd5b8073ffffffffffffffffffffffffffffffffffffffff1660008054906101000a900473ffffffffffffffffffffffffffffffffffffffff1673ffffffffffffffffffffffffffffffffffffffff167f8be0079c531659141344cd1fd0a4f28419497f9722a3daafe3b4186f6b6457e060405160405180910390a3806000806101000a81548173ffffffffffffffffffffffffffffffffffffffff021916908373ffffffffffffffffffffffffffffffffffffffff16021790555050565b60125481565b6040518060c0016040528060008019168152602001600080191681526020016000815260200160008152602001600080191681526020016114e8611595565b81525090565b604051806101400160405280606081526020016000801916815260200160608152602001606081526020016060815260200160608152602001606081526020016060815260200160608152602001606081525090565b6040518060c00160405280606081526020016000801916815260200160608152602001600073ffffffffffffffffffffffffffffffffffffffff168152602001600015158152602001606081525090565b604051806101a00160405280600080191681526020016060815260200160608152602001600073ffffffffffffffffffffffffffffffffffffffff1681526020016000801916815260200160608152602001606081526020016060815260200160608152602001606081526020016060815260200160608152602001606081525090565b6000819050919050565b61162c81611619565b82525050565b60006020820190506116476000830184611623565b92915050565b60008115159050919050565b6116628161164d565b82525050565b600060208201905061167d6000830184611659565b92915050565b600073ffffffffffffffffffffffffffffffffffffffff82169050919050565b60006116ae82611683565b9050919050565b6116be816116a3565b82525050565b60006020820190506116d960008301846116b5565b92915050565b6000604051905090565b600080fd5b600080fd5b600080fd5b600080fd5b6000601f19601f8301169050919050565b7f4e487b7100000000000000000000000000000000000000000000000000000000600052604160045260246000fd5b611746826116fd565b810181811067ffffffffffffffff821117156117655761176461170e565b5b80604052505050565b60006117786116df565b9050611784828261173d565b919050565b600067ffffffffffffffff8211156117a4576117a361170e565b5b6117ad826116fd565b9050602081019050919050565b82818337600083830152505050565b60006117dc6117d784611789565b61176e565b9050828152602081018484840111156117f8576117f76116f8565b5b6118038482856117ba565b509392505050565b600082601f8301126118205761181f6116f3565b5b81356118308482602086016117c9565b91505092915050565b600080604083850312156118505761184f6116e9565b5b600083013567ffffffffffffffff81111561186e5761186d6116ee565b5b61187a8582860161180b565b925050602083013567ffffffffffffffff81111561189b5761189a6116ee565b5b6118a78582860161180b565b9150509250929050565b6000819050919050565b6118c4816118b1565b81146118cf57600080fd5b50565b6000813590506118e1816118bb565b92915050565b6000602082840312156118fd576118fc6116e9565b5b600061190b848285016118d2565b91505092915050565b61191d816116a3565b811461192857600080fd5b50565b60008135905061193a81611914565b92915050565b6000806000806000806000806000806101408b8d031215611964576119636116e9565b5b60008b013567ffffffffffffffff811115611982576119816116ee565b5b61198e8d828e0161180b565b9a505060208b013567ffffffffffffffff8111156119af576119ae6116ee565b5b6119bb8d828e0161180b565b99505060406119cc8d828e0161192b565b98505060608b013567ffffffffffffffff8111156119ed576119ec6116ee565b5b6119f98d828e0161180b565b97505060808b013567ffffffffffffffff811115611a1a57611a196116ee565b5b611a268d828e0161180b565b96505060a08b013567ffffffffffffffff811115611a4757611a466116ee565b5b611a538d828e0161180b565b95505060c08b013567ffffffffffffffff811115611a7457611a736116ee565b5b611a808d828e0161180b565b94505060e08b013567ffffffffffffffff811115611aa157611aa06116ee565b5b611aad8d828e0161180b565b9350506101008b013567ffffffffffffffff811115611acf57611ace6116ee565b5b611adb8d828e0161180b565b9250506101208b013567ffffffffffffffff811115611afd57611afc6116ee565b5b611b098d828e0161180b565b9150509295989b9194979a5092959850565b600060208284031215611b3157611b306116e9565b5b600082013567ffffffffffffffff811115611b4f57611b4e6116ee565b5b611b5b8482850161180b565b91505092915050565b611b6d816118b1565b82525050565b6000602082019050611b886000830184611b64565b92915050565b60008060008060008060008060006101208a8c031215611bb157611bb06116e9565b5b60008a013567ffffffffffffffff811115611bcf57611bce6116ee565b5b611bdb8c828d0161180b565b99505060208a013567ffffffffffffffff811115611bfc57611bfb6116ee565b5b611c088c828d0161180b565b98505060408a013567ffffffffffffffff811115611c2957611c286116ee565b5b611c358c828d0161180b565b97505060608a013567ffffffffffffffff811115611c5657611c556116ee565b5b611c628c828d0161180b565b96505060808a013567ffffffffffffffff811115611c8357611c826116ee565b5b611c8f8c828d0161180b565b95505060a08a013567ffffffffffffffff811115611cb057611caf6116ee565b5b611cbc8c828d0161180b565b94505060c08a013567ffffffffffffffff811115611cdd57611cdc6116ee565b5b611ce98c828d0161180b565b93505060e08a013567ffffffffffffffff811115611d0a57611d096116ee565b5b611d168c828d0161180b565b9250506101008a013567ffffffffffffffff811115611d3857611d376116ee565b5b611d448c828d0161180b565b9150509295985092959850929598565b600081519050919050565b600082825260208201905092915050565b60005b83811015611d8e578082015181840152602081019050611d73565b60008484015250505050565b6000611da582611d54565b611daf8185611d5f565b9350611dbf818560208601611d70565b611dc8816116fd565b840191505092915050565b60006020820190508181036000830152611ded8184611d9a565b905092915050565b600080600060608486031215611e0e57611e0d6116e9565b5b600084013567ffffffffffffffff811115611e2c57611e2b6116ee565b5b611e388682870161180b565b9350506020611e498682870161192b565b925050604084013567ffffffffffffffff811115611e6a57611e696116ee565b5b611e768682870161180b565b9150509250925092565b600060208284031215611e9657611e956116e9565b5b6000611ea48482850161192b565b91505092915050565b600081905092915050565b6000611ec382611d54565b611ecd8185611ead565b9350611edd818560208601611d70565b80840191505092915050565b6000611ef58285611eb8565b9150611f018284611eb8565b91508190509392505050565b600081519050919050565b600081905092915050565b6000611f2e82611f0d565b611f388185611f18565b9350611f48818560208601611d70565b80840191505092915050565b6000611f608284611f23565b915081905092915050565b600081519050611f7a816118bb565b92915050565b600060208284031215611f9657611f956116e9565b5b6000611fa484828501611f6b565b91505092915050565b6000611fb98284611eb8565b915081905092915050565b7f4e487b7100000000000000000000000000000000000000000000000000000000600052602260045260246000fd5b6000600282049050600182168061200b57607f821691505b60208210810361201e5761201d611fc4565b5b50919050565b60008190508160005260206000209050919050565b60006020601f8301049050919050565b600082821b905092915050565b6000600883026120867fffffffffffffffffffffffffffffffffffffffffffffffffffffffffffffffff82612049565b6120908683612049565b95508019841693508086168417925050509392505050565b6000819050919050565b60006120cd6120c86120c384611619565b6120a8565b611619565b9050919050565b6000819050919050565b6120e7836120b2565b6120fb6120f3826120d4565b848454612056565b825550505050565b600090565b612110612103565b61211b8184846120de565b505050565b5b8181101561213f57612134600082612108565b600181019050612121565b5050565b601f8211156121845761215581612024565b61215e84612039565b8101602085101561216d578190505b61218161217985612039565b830182612120565b50505b505050565b600082821c905092915050565b60006121a760001984600802612189565b1980831691505092915050565b60006121c08383612196565b9150826002028217905092915050565b6121d982611d54565b67ffffffffffffffff8111156121f2576121f161170e565b5b6121fc8254611ff3565b612207828285612143565b600060209050601f83116001811461223a5760008415612228578287015190505b61223285826121b4565b86555061229a565b601f19841661224886612024565b60005b828110156122705784890151825560018201915060208501945060208101905061224b565b8683101561228d5784890151612289601f891682612196565b8355505b6001600288020188555050505b505050505050565b7f4e487b7100000000000000000000000000000000000000000000000000000000600052601160045260246000fd5b60006122dc82611619565b91506122e783611619565b92508282039050818111156122ff576122fe6122a2565b5b92915050565b600061231082611619565b91507fffffffffffffffffffffffffffffffffffffffffffffffffffffffffffffffff8203612342576123416122a2565b5b600182019050919050565b7f4e487b7100000000000000000000000000000000000000000000000000000000600052601260045260246000fd5b600061238782611619565b915061239283611619565b9250826123a2576123a161234d565b5b828204905092915050565b7f4e487b7100000000000000000000000000000000000000000000000000000000600052603260045260246000fd5b600081546123e981611ff3565b6123f38186611d5f565b9450600182166000811461240e576001811461242457612457565b60ff198316865281151560200286019350612457565b61242d85612024565b60005b8381101561244f57815481890152600182019150602081019050612430565b808801955050505b50505092915050565b600061014082019050818103600083015261247b818d611d9a565b9050818103602083015261248f818c611d9a565b905081810360408301526124a3818b6123dc565b905081810360608301526124b7818a611d9a565b905081810360808301526124cb8189611d9a565b905081810360a08301526124df8188611d9a565b905081810360c08301526124f38187611d9a565b905081810360e08301526125078186611d9a565b905081810361010083015261251c8185611d9a565b90508181036101208301526125318184611d9a565b90509b9a5050505050505050505050565b600061014082019050818103600083015261255d818d611d9a565b90508181036020830152612571818c611d9a565b90508181036040830152612585818b6123dc565b90508181036060830152612599818a6123dc565b905081810360808301526125ad81896123dc565b905081810360a08301526125c18188611d9a565b905081810360c08301526125d58187611d9a565b905081810360e08301526125e98186611d9a565b90508181036101008301526125fe8185611d9a565b90508181036101208301526126138184611d9a565b90509b9a5050505050505050505050565b600061012082019050818103600083015261263f818c611d9a565b90508181036020830152612653818b611d9a565b90508181036040830152612667818a611d9a565b9050818103606083015261267b8189611d9a565b9050818103608083015261268f8188611d9a565b905081810360a08301526126a38187611d9a565b905081810360c08301526126b78186611d9a565b905081810360e08301526126cb8185611d9a565b90508181036101008301526126e08184611d9a565b90509a9950505050505050505050565b60008160601b9050919050565b6000612708826126f0565b9050919050565b600061271a826126fd565b9050919050565b61273261272d826116a3565b61270f565b82525050565b60006127448286611eb8565b91506127508285612721565b6014820191506127608284611eb8565b9150819050949350505050565b600060808201905081810360008301526127878187611d9a565b9050818103602083015261279b8186611d9a565b90506127aa60408301856116b5565b81810360608301526127bc8184611d9a565b90509594505050505056fea26469706673582212206a05b5297fe29db5037499bd0a566639b605a113f3618d376c4859c41c189b7764736f6c6343000811003355707065726261792053797374656d732043757272656e74466f72436172626f6e205631",
  "immutableReferences": {},
  "source": "// SPDX-License-Identifier: MIT\r\npragma solidity >=0.4.21 <0.8.18;\r\npragma experimental ABIEncoderV2;\r\nimport \"./C2COwnable.sol\";\r\nimport \"./DateLib.sol\";\r\n\r\n/// @title CurrentForCarbon\r\n/// @author Dave Hardin\r\n/// notice \r\ncontract CurrentForCarbon is C2COwnable {\r\n    using DateLib for DateLib.DateTime;\r\n\r\n    struct GamePlayer {\r\n        string gamePlayerID;\r\n        bytes32 gamePlayerSignature; // sha256 of dataConnectionString, gamePlayerAddress, gamePlayerID\r\n        string dataConnectionString;\r\n        address gamePlayerAddress;  \r\n        bool signatureMatches;\r\n        string status;\r\n    }\r\n\r\n    struct GameEvent {\r\n        string gameEventID;    \r\n        bytes32 gameEventSignature;\r\n        string gameEventName;    \r\n        string gameEventType;  \r\n        string gameEventStartTime;     \r\n        string gameEventEndTime;       \r\n        string gameEventDuration;\r\n        string dollarPerPoint;\r\n        string pointsPerWatt;\r\n        string pointsPerPercent;\r\n     }\r\n\r\n    struct GameResult {\r\n        bytes32 gameResultSignature;  //sha256 of playerid + eventID\r\n        string gamePlayerID;   \r\n        string gameEventID;    \r\n        address gamePlayerAddress;   \r\n        bytes32 gamePlayerSignature;\r\n        string averagePowerInWatts;\r\n        string baselineAveragePowerInWatts;\r\n        string deltaAveragePowerInWatts;\r\n        string percentPoints;\r\n        string wattPoints;\r\n        string totalPointsAwarded;\r\n        string awardValue;\r\n        string status;\r\n    }\r\n   \r\n   struct GameResultLocals {\r\n        bytes32 eventHash;\r\n        bytes32 resultHash;    \r\n        uint eventIndex;\r\n        uint resultIndex;\r\n        bytes32 gamePlayerIDIdx;\r\n        GameResult gameResult;       \r\n     }\r\n   // EVENTS\r\n   \r\n   event GamePlayerEvent(\r\n        uint indexed slice,\r\n        string gamePlayerID,\r\n        string dataConnectionString,\r\n        address gamePlayerAddress,\r\n        string status\r\n   );\r\n\r\n    event GameEventEvent(\r\n        uint indexed slice,\r\n        string gameEventID,\r\n        string gameEventName,\r\n        string gameEventType,  \r\n        string gameEventStartTime,\r\n        string gameEventEndTime,     \r\n        string gameEventDuration,\r\n        string dollarPerPoint,\r\n        string pointsPerWatt,\r\n        string pointsPerPercent\r\n    );\r\n\r\n    event GameResultEvent(\r\n        uint indexed slice,\r\n        bytes32 indexed gamePlayerIDIdx,\r\n        string gameEventStartTime,\r\n        string gamePlayerID,\r\n        string gameEventID,\r\n        string averagePowerInWatts,\r\n        string baselineAveragePowerInWatts,\r\n        string deltaAveragePowerInWatts,\r\n        string percentPoints,\r\n        string wattPoints,\r\n        string totalPointsAwarded,\r\n        string awardValue\r\n    );\r\n  \r\n  event GameCombinedEventResultEvent(\r\n            uint indexed slice,\r\n            bytes32 indexed gamePlayerIDIdx,\r\n            string gamePlayerID,\r\n            string gameEventID,\r\n            string gameEventStartTime,\r\n            string gameEventDuration,\r\n            string pointsPerWatt,\r\n            string averagePowerInWatts,\r\n            string baselineAveragePowerInWatts,\r\n            string deltaAveragePowerInWatts,\r\n            string wattPoints,\r\n            string awardValue\r\n        );\r\n\r\n\r\n    struct PlayerState {\r\n        uint slice;\r\n        uint count;\r\n    }\r\n\r\n    struct EventState {\r\n        uint slice;\r\n        uint count;\r\n    }\r\n\r\n    struct ResultState {\r\n        uint slice;\r\n        uint count;\r\n    }\r\n\r\n\r\n    GamePlayer[] _gamePlayers;\r\n    mapping(bytes32 => uint) _gamePlayerIDHashToIndex;\r\n    GameEvent[] _gameEvents;\r\n    mapping(bytes32 => uint) _gameEventIDHashToIndex;\r\n    GameResult[] _gameResults;\r\n    mapping(bytes32 => uint) _gameResultIDHashToIndex;\r\n\r\n    PlayerState _playerState;\r\n    EventState _eventState;\r\n    ResultState _resultState;\r\n\r\n    uint _sliceSize = 9999;\r\n \r\n    /// External State Variables\r\n\r\n    string public _contractName;\r\n    \r\n    bool public HasResultReadyFlag = false;\r\n\r\n    uint public PlayerCount = 0;\r\n    uint public EventCount = 0;\r\n    uint public ResultCount = 0;\r\n\r\n \r\n    /// construction of contract\r\n    constructor ()  {\r\n        _contractName = \"Upperbay Systems CurrentForCarbon V1\";\r\n\r\n        _playerState.slice = 0;\r\n        _playerState.count = 0;\r\n\r\n        _eventState.slice = 0;\r\n        _eventState.count = 0;\r\n\r\n        _resultState.slice = 0;\r\n        _resultState.count = 0;\r\n\r\n    }\r\n  \r\n    // function _getDataItemIndex(bytes32 _dataItemId) private view returns (uint) {\r\n    //     return dataItemIdToIndex[_dataItemId]-1;\r\n    // }\r\n      \r\n    function GamePlayerExists(bytes32 _gamePlayerIDHash) public view returns (bool) {\r\n        if (_gamePlayers.length == 0)\r\n            return false;\r\n        uint index = _gamePlayerIDHashToIndex[_gamePlayerIDHash];\r\n        return (index > 0);\r\n    }\r\n\r\n    function GameEventExists(bytes32 _gameEventIDHash) public view returns (bool) {\r\n        if (_gameEvents.length == 0)\r\n            return false;\r\n        uint index = _gameEventIDHashToIndex[_gameEventIDHash];\r\n        return (index > 0);\r\n    }\r\n\r\n    function GameResultExists(bytes32 _gameResultIDHash) public view returns (bool) {\r\n        if (_gameResults.length == 0)\r\n            return false;\r\n        uint index = _gameResultIDHashToIndex[_gameResultIDHash];\r\n        return (index > 0);\r\n    }\r\n\r\n    \r\n\r\n    function  AddGamePlayer (\r\n        string memory gamePlayerID,\r\n        address playerAddress,\r\n        string memory dataConnectionString\r\n       \r\n        )  public { //onlyOwner\r\n\r\n        //hash the crucial info to get a unique id\r\n        //bytes32 id = keccak256(abi.encodePacked(_name, _description, _accessPath, _creationTime));\r\n        bytes32 gamePlayerSignature = sha256 (abi.encodePacked(dataConnectionString, playerAddress,gamePlayerID));\r\n        bytes32 gamePlayerIDHash = sha256 (abi.encodePacked(gamePlayerID));\r\n        //require that the match be unique (not already added)\r\n        require(!GamePlayerExists(gamePlayerIDHash));\r\n\r\n        GamePlayer memory gamePlayer;\r\n        gamePlayer.gamePlayerID = gamePlayerID; \r\n        gamePlayer.dataConnectionString = dataConnectionString;   \r\n        gamePlayer.gamePlayerAddress = playerAddress;\r\n        gamePlayer.gamePlayerSignature = gamePlayerSignature;\r\n        gamePlayer.status = \"active\";\r\n           \r\n        _gamePlayers.push(gamePlayer);\r\n        uint newIndex = _gamePlayers.length - 1;\r\n        _gamePlayerIDHashToIndex[gamePlayerIDHash] = newIndex;\r\n\r\n        _playerState.count++;\r\n        _playerState.slice = _playerState.count/_sliceSize;\r\n        PlayerCount = _playerState.count;\r\n\r\n        emit GamePlayerEvent(\r\n                             _playerState.slice,\r\n                            gamePlayer.gamePlayerID,\r\n                            gamePlayer.dataConnectionString,\r\n                            gamePlayer.gamePlayerAddress,\r\n                            gamePlayer.status\r\n                            );\r\n    }\r\n\r\n    function AddGameEvent (\r\n        string memory gameEventID,\r\n        string memory gameEventName,\r\n        string memory gameEventType,\r\n        string memory gameEventStartTime,\r\n        string memory gameEventEndTime,     \r\n        string memory gameEventDuration,\r\n        string memory dollarPerPoint,\r\n        string memory pointsPerWatt,\r\n        string memory pointsPerPercent\r\n        )  public \r\n    { //onlyOwner\r\n\r\n        //hash the crucial info to get a unique id\r\n        //bytes32 id = keccak256(abi.encodePacked(_name, _description, _accessPath, _creationTime));\r\n        bytes32 gameEventIDHash = sha256 (abi.encodePacked(gameEventID));\r\n        \r\n        //require that the match be unique (not already added)\r\n        require(!GamePlayerExists(gameEventIDHash));\r\n        \r\n        GameEvent memory gameEvent;\r\n        gameEvent.gameEventSignature = gameEventIDHash;\r\n        gameEvent.gameEventID = gameEventID;\r\n        gameEvent.gameEventName = gameEventName;\r\n        gameEvent.gameEventType = gameEventType;\r\n        gameEvent.gameEventStartTime = gameEventStartTime;\r\n        gameEvent.gameEventEndTime = gameEventEndTime;\r\n        gameEvent.gameEventDuration = gameEventDuration;\r\n        gameEvent.dollarPerPoint = dollarPerPoint;\r\n        gameEvent.pointsPerWatt = pointsPerWatt;\r\n        gameEvent.pointsPerPercent = pointsPerPercent;\r\n\r\n        _gameEvents.push(gameEvent);\r\n        uint newIndex = _gameEvents.length - 1;\r\n        _gameEventIDHashToIndex[gameEventIDHash] = newIndex;\r\n\r\n\r\n        _eventState.count++;\r\n        _eventState.slice = _eventState.count/_sliceSize;\r\n        EventCount = _eventState.count;\r\n\r\n\r\n        emit GameEventEvent(\r\n                _eventState.slice,\r\n                gameEventID,\r\n                gameEventName,\r\n                gameEventType,  \r\n                gameEventStartTime,\r\n                gameEventEndTime,     \r\n                gameEventDuration,\r\n                dollarPerPoint,\r\n                pointsPerWatt,\r\n                pointsPerPercent\r\n                );\r\n    }\r\n\r\n  function AddGameResult (\r\n        string memory gamePlayerID,   \r\n        string memory gameEventID, \r\n        address gamePlayerAddress,   \r\n        string memory averagePowerInWatts,\r\n        string memory baselineAveragePowerInWatts,\r\n        string memory deltaAveragePowerInWatts,\r\n        string memory percentPoints,\r\n        string memory wattPoints,\r\n        string memory totalPointsAwarded,\r\n        string memory awardValue\r\n        )     public  \r\n    { //onlyOwner\r\n\r\n    \r\n        GameResultLocals memory locals;\r\n        //   bytes32 eventHash;\r\n        //   bytes32 resultHash;    \r\n        //   uint eventIndex;\r\n        //   uint resultIndex;        \r\n     \r\n        //hash the crucial info to get a unique id\r\n        //bytes32 id = keccak256(abi.encodePacked(_name, _description, _accessPath, _creationTime));\r\n\r\n        locals.resultHash = sha256 (abi.encodePacked(gamePlayerID,gameEventID));\r\n        locals.eventHash = sha256 (abi.encodePacked(gameEventID));\r\n\r\n        //require that the match be unique (not already added)\r\n        require(!GameResultExists(locals.resultHash));\r\n        \r\n        locals.gameResult.gameResultSignature = locals.resultHash;\r\n        locals.gameResult.gamePlayerID = gamePlayerID;\r\n        locals.gameResult.gameEventID = gameEventID;   \r\n        locals.gameResult.gamePlayerAddress = gamePlayerAddress;\r\n        locals.gameResult.averagePowerInWatts = averagePowerInWatts;\r\n        locals.gameResult.baselineAveragePowerInWatts = baselineAveragePowerInWatts;\r\n        locals.gameResult.deltaAveragePowerInWatts = deltaAveragePowerInWatts;\r\n        locals.gameResult.percentPoints = percentPoints;\r\n        locals.gameResult.wattPoints = wattPoints;\r\n        locals.gameResult.totalPointsAwarded = totalPointsAwarded;\r\n        locals.gameResult.awardValue = awardValue;\r\n        locals.gameResult.status = \"unconfirmed\";\r\n\r\n        _gameResults.push(locals.gameResult);\r\n        locals.resultIndex = _gameResults.length - 1;\r\n        _gameResultIDHashToIndex[locals.resultHash] = locals.resultIndex ;\r\n\r\n        locals.eventIndex = _gameEventIDHashToIndex[locals.eventHash];\r\n \r\n        _resultState.count++;\r\n        _resultState.slice = _resultState.count/_sliceSize;\r\n\r\n        ResultCount = _resultState.count;\r\n\r\n        locals.gamePlayerIDIdx = sha256 (abi.encodePacked(gamePlayerID));\r\n\r\n        emit GameResultEvent(\r\n                    _resultState.slice,\r\n                    locals.gamePlayerIDIdx,\r\n                    locals.gameResult.gamePlayerID,\r\n                    locals.gameResult.gameEventID,\r\n                    _gameEvents[locals.eventIndex].gameEventStartTime,\r\n                    locals.gameResult.averagePowerInWatts,\r\n                    locals.gameResult.baselineAveragePowerInWatts,\r\n                    locals.gameResult.deltaAveragePowerInWatts,\r\n                    locals.gameResult.percentPoints,\r\n                    locals.gameResult.wattPoints,\r\n                    locals.gameResult.totalPointsAwarded,\r\n                    locals.gameResult.awardValue\r\n                    );\r\n\r\n        emit GameCombinedEventResultEvent(\r\n                    _resultState.slice,\r\n                    locals.gamePlayerIDIdx,\r\n                    locals.gameResult.gamePlayerID,\r\n                    locals.gameResult.gameEventID,\r\n                    _gameEvents[locals.eventIndex].gameEventStartTime,\r\n                    _gameEvents[locals.eventIndex].gameEventDuration,\r\n                    _gameEvents[locals.eventIndex].pointsPerWatt,\r\n                    locals.gameResult.averagePowerInWatts,\r\n                    locals.gameResult.baselineAveragePowerInWatts,\r\n                    locals.gameResult.deltaAveragePowerInWatts,\r\n                    locals.gameResult.wattPoints,\r\n                    locals.gameResult.awardValue\r\n                    );\r\n\r\n    }\r\n\r\n    function UpdateResultsStatus(string memory resultID, \r\n                                string memory status) public onlyOwner \r\n    {\r\n        //STUB\r\n        //require(msg.sender == owner);\r\n        //bytes32 resultIDBytes = StringToBytes32(resultID);\r\n        //string memory myStatus = status;\r\n        //TODO pop result, update status, push result\r\n    }\r\n\r\n    function UpdatePlayerStatus(string memory playerID, \r\n                                string memory status) public onlyOwner \r\n    {\r\n        //STUB\r\n        //require(msg.sender == owner);\r\n        //bytes32 playerIDBytes = StringToBytes32(playerID);\r\n        //string memory myStatus = status;\r\n        //TODO pop player, update status, push player\r\n    }\r\n\r\n \r\n ///////////////////////////\r\n//   function logAllPlayers() public {\r\n//        // bytes32[] memory output = new bytes32[](_gamePlayers.length);\r\n\r\n//         //get all ids\r\n//         if (_gamePlayers.length > 0) {\r\n//             //uint index = 0;\r\n//             for (uint n = _gamePlayers.length; n > 0; n--) {\r\n//                 emit GamePlayerEvent(\r\n//                     _gamePlayers[n-1].gamePlayerID,\r\n//                     _gamePlayers[n-1].gamePlayerSignature,\r\n//                     _gamePlayers[n-1].dataConnectionString,\r\n//                     _gamePlayers[n-1].gamePlayerAddress,\r\n//                     _gamePlayers[n-1].active\r\n//                     );  \r\n//                 //output[index++] = _gamePlayers[n-1].gamePlayerSignature;\r\n//             }\r\n//         }\r\n//     }\r\n\r\n//     function logAllEvents() public view returns (string[] memory) {\r\n//         string[] memory output = new string[](_gameEvents.length);\r\n\r\n//         //get all ids\r\n//         if (_gameEvents.length > 0) {\r\n//             uint index = 0;\r\n//             for (uint n = _gameEvents.length; n > 0; n--) {\r\n//                 output[index++] = _gameEvents[n-1].gameEventID;\r\n//             }\r\n//         }\r\n//         return output;\r\n//     }\r\n\r\n// function logAllResults() public view returns (bytes32[] memory) {\r\n//         bytes32[] memory output = new bytes32[](_gameResults.length);\r\n\r\n//         //get all ids\r\n//         if (_gameResults.length > 0) {\r\n//             uint index = 0;\r\n//             for (uint n = _gameResults.length; n > 0; n--) {\r\n//                 output[index++] = _gameResults[n-1].gameResultID;\r\n//             }\r\n//         }\r\n//         return output;\r\n//     }\r\n\r\n\r\n// /////////////////////////\r\n//     function getAllPlayers() public view returns (string[] memory) {\r\n//         string[] memory output = new string[](_gamePlayers.length);\r\n\r\n//         //get all ids\r\n//         if (_gamePlayers.length > 0) {\r\n//             uint index = 0;\r\n//             for (uint n = _gamePlayers.length; n > 0; n--) {\r\n//                 output[index++] = _gamePlayers[n-1].gamePlayerID;\r\n//             }\r\n//         }\r\n//         return output;\r\n//     }\r\n\r\n//     function getAllEvents() public view returns (string[] memory) {\r\n//         string[] memory output = new string[](_gameEvents.length);\r\n\r\n//         //get all ids\r\n//         if (_gameEvents.length > 0) {\r\n//             uint index = 0;\r\n//             for (uint n = _gameEvents.length; n > 0; n--) {\r\n//                 output[index++] = _gameEvents[n-1].gameEventID;\r\n//             }\r\n//         }\r\n//         return output;\r\n//     }\r\n\r\n//     function getAllResults() public view returns (bytes32[] memory) {\r\n//         bytes32[] memory output = new bytes32[](_gameResults.length);\r\n\r\n//         //get all ids\r\n//         if (_gameResults.length > 0) {\r\n//             uint index = 0;\r\n//             for (uint n = _gameResults.length; n > 0; n--) {\r\n//                 output[index++] = _gameResults[n-1].gameResultID;\r\n//             }\r\n//         }\r\n//         return output;\r\n//     }\r\n//////////////////////////////////\r\n\r\n\r\n\r\n    /// notice can be used by a client contract to ensure that they've connected to this contract interface successfully\r\n    /// @return true, unconditionally\r\n    function testConnection() public pure returns (bool) \r\n    {\r\n        return true;\r\n    }\r\n\r\n\r\n\r\n    /// notice gets the address of this contract\r\n    /// @return address\r\n    function getAddress() public view returns (address) \r\n    {\r\n        return address(this);\r\n    }\r\n\r\n\r\n \r\n    /// notice for testing\r\n    function addTestData() external onlyOwner \r\n    {\r\n        //addDataItem(\"ElectricDemand\", \"Electricity Demand for 13470\", \"ThingSpeak\", \"Now\");\r\n        // addDataItem(\"Macquiao vs. Payweather\", \"Macquiao|Payweather\", 2, DateLib.DateTime(2018, 8, 15, 0, 0, 0, 0, 0).toUnixTimestamp());\r\n        // addDataItem(\"Pacweather vs. Macarthur\", \"Pacweather|Macarthur\", 2, DateLib.DateTime(2018, 9, 3, 0, 0, 0, 0, 0).toUnixTimestamp());\r\n        // addDataItem(\"Macarthur vs. Truman\", \"Macarthur|Truman\", 2, DateLib.DateTime(2018, 9, 3, 0, 0, 0, 0, 0).toUnixTimestamp());\r\n        // addDataItem(\"Macaque vs. Pregunto\", \"Macaque|Pregunto\", 2, DateLib.DateTime(2018, 9, 21, 0, 0, 0, 0, 0).toUnixTimestamp());\r\n        // addDataItem(\"Farsworth vs. Wernstrom\", \"Farsworth|Wernstrom\", 2, DateLib.DateTime(2018, 9, 29, 0, 0, 0, 0, 0).toUnixTimestamp());\r\n        // addDataItem(\"Fortinbras vs. Hamlet\", \"Fortinbras|Hamlet\", 2, DateLib.DateTime(2018, 10, 10, 0, 0, 0, 0, 0).toUnixTimestamp());\r\n        // addDataItem(\"Foolicle vs. Pretendo\", \"Foolicle|Pretendo\", 2, DateLib.DateTime(2018, 11, 11, 0, 0, 0, 0, 0).toUnixTimestamp());\r\n        // addDataItem(\"Parthian vs. Scythian\", \"Parthian|Scythian\", 2, DateLib.DateTime(2018, 11, 12, 0, 0, 0, 0, 0).toUnixTimestamp());\r\n    }\r\n\r\n    // function StringtoAddress(string memory _a) internal pure returns (address _parsedAddress) {\r\n    //     bytes memory tmp = bytes(_a);\r\n    //     uint160 iaddr = 0;\r\n    //     uint160 b1;\r\n    //     uint160 b2;\r\n    //     for (uint i = 2; i < 2 + 2 * 20; i += 2) {\r\n    //         iaddr *= 256;\r\n    //         b1 = uint160(uint8(tmp[i]));\r\n    //         b2 = uint160(uint8(tmp[i + 1]));\r\n    //         if ((b1 >= 97) && (b1 <= 102)) {\r\n    //             b1 -= 87;\r\n    //         } else if ((b1 >= 65) && (b1 <= 70)) {\r\n    //             b1 -= 55;\r\n    //         } else if ((b1 >= 48) && (b1 <= 57)) {\r\n    //             b1 -= 48;\r\n    //         }\r\n    //         if ((b2 >= 97) && (b2 <= 102)) {\r\n    //             b2 -= 87;\r\n    //         } else if ((b2 >= 65) && (b2 <= 70)) {\r\n    //             b2 -= 55;\r\n    //         } else if ((b2 >= 48) && (b2 <= 57)) {\r\n    //             b2 -= 48;\r\n    //         }\r\n    //         iaddr += (b1 * 16 + b2);\r\n    //     }\r\n    //     return address(iaddr);\r\n    // }\r\n\r\n\r\n    // function StringToBytes32(string memory source) internal pure returns (bytes32 result) {\r\n    //     bytes memory tempEmptyStringTest = bytes(source);\r\n    //     if (tempEmptyStringTest.length == 0) {\r\n    //         return 0x0;\r\n    //     }\r\n    //     assembly {\r\n    //         result := mload(add(source, 32))\r\n    //     }\r\n    // }\r\n\r\n    function Bytes32ToString(bytes32 x) internal pure returns (string memory)  {\r\n    bytes memory bytesString = new bytes(32);\r\n    uint charCount = 0;\r\n    for (uint j = 0; j < 32; j++) {\r\n        bytes1 char = bytes1(bytes32(uint(x) * 2 ** (8 * j)));\r\n        if (char != 0) {\r\n            bytesString[charCount] = char;\r\n            charCount++;\r\n        }\r\n    }\r\n    bytes memory bytesStringTrimmed = new bytes(charCount);\r\n    for (uint j = 0; j < charCount; j++) {\r\n        bytesStringTrimmed[j] = bytesString[j];\r\n    }\r\n    return string(bytesStringTrimmed);\r\n    }\r\n\r\n\r\n    function StringToBytes32(string memory source) public pure returns (bytes32 result) {\r\n        bytes memory tempEmptyStringTest = bytes(source);\r\n        if (tempEmptyStringTest.length == 0) {\r\n            return 0x0;\r\n        }\r\n        assembly {\r\n            result := mload(add(source, 32))\r\n        }\r\n    }\r\n\r\n\r\n    function UintToString(uint _i) internal pure returns (string memory _uintAsString) {\r\n        if (_i == 0) {\r\n            return \"0\";\r\n        }\r\n        uint j = _i;\r\n        uint len;\r\n        while (j != 0) {\r\n            len++;\r\n            j /= 10;\r\n        }\r\n        bytes memory bstr = new bytes(len);\r\n        uint k = len - 1;\r\n        while (_i != 0) {\r\n            bstr[k--] = bytes1(uint8(48 + _i % 10));\r\n            _i /= 10;\r\n        }\r\n        return string(bstr);\r\n    }\r\n    \r\n    // function StringCompare(string memory a, string memory b) internal pure returns (bool) {\r\n    // //function HashCompareWithLengthCheck(string a, string b) internal returns (bool) {\r\n    //     if(bytes(a).length != bytes(b).length) {\r\n    //         return false;\r\n    //     } else {\r\n    //         return keccak256(abi.encodePacked(a)) == keccak256(abi.encodePacked(b));\r\n    //     }\r\n    // }\r\n\r\n  /// destroy the contract and reclaim the leftover funds.\r\n    function kill() public onlyOwner \r\n    {\r\n        //require(msg.sender == owner);\r\n        selfdestruct(payable(msg.sender));\r\n    }\r\n}\r\n",
  "sourcePath": "C:\\c2_beta1\\smartcontracts\\ethoracle\\contracts\\CurrentForCarbon.sol",
  "compiler": {
    "name": "solc",
    "version": "0.8.17+commit.8df45f5f.Emscripten.clang"
  },
  "schemaVersion": "3.4.3",
  "updatedAt": "2022-10-11T19:40:02.210Z",
  "devdoc": {
    "author": "Dave Hardin notice ",
    "kind": "dev",
    "methods": {
      "getAddress()": {
        "returns": {
          "_0": "address"
        }
      },
      "testConnection()": {
        "returns": {
          "_0": "true, unconditionally"
        }
      },
      "transferOwnership(address)": {
        "details": "Allows the current owner to transfer control of the contract to a newOwner.",
        "params": {
          "newOwner": "The address to transfer ownership to."
        }
      }
    },
    "title": "CurrentForCarbon",
    "version": 1
  },
  "userdoc": {
    "kind": "user",
    "methods": {
      "_contractName()": {
        "notice": "External State Variables"
      },
      "addTestData()": {
        "notice": "notice for testing"
      },
      "constructor": {
        "notice": "construction of contract"
      },
      "getAddress()": {
        "notice": "notice gets the address of this contract"
      },
      "kill()": {
        "notice": "destroy the contract and reclaim the leftover funds."
      },
      "testConnection()": {
        "notice": "notice can be used by a client contract to ensure that they've connected to this contract interface successfully"
      }
    },
    "version": 1
  }
}